{
  "_format": "hh-sol-artifact-1",
  "contractName": "WMAP_ORGANIZATION",
  "sourceName": "contracts/wmap_organization.sol",
  "abi": [
    {
      "inputs": [],
      "stateMutability": "nonpayable",
      "type": "constructor"
    },
    {
      "anonymous": false,
      "inputs": [
        {
          "indexed": true,
          "internalType": "address",
          "name": "owner",
          "type": "address"
        },
        {
          "indexed": true,
          "internalType": "address",
          "name": "approved",
          "type": "address"
        },
        {
          "indexed": true,
          "internalType": "uint256",
          "name": "tokenId",
          "type": "uint256"
        }
      ],
      "name": "Approval",
      "type": "event"
    },
    {
      "anonymous": false,
      "inputs": [
        {
          "indexed": true,
          "internalType": "address",
          "name": "owner",
          "type": "address"
        },
        {
          "indexed": true,
          "internalType": "address",
          "name": "operator",
          "type": "address"
        },
        {
          "indexed": false,
          "internalType": "bool",
          "name": "approved",
          "type": "bool"
        }
      ],
      "name": "ApprovalForAll",
      "type": "event"
    },
    {
      "anonymous": false,
      "inputs": [
        {
          "indexed": true,
          "internalType": "address",
          "name": "from",
          "type": "address"
        },
        {
          "indexed": true,
          "internalType": "address",
          "name": "to",
          "type": "address"
        },
        {
          "indexed": true,
          "internalType": "uint256",
          "name": "tokenId",
          "type": "uint256"
        }
      ],
      "name": "Transfer",
      "type": "event"
    },
    {
      "inputs": [
        {
          "internalType": "address",
          "name": "to",
          "type": "address"
        },
        {
          "internalType": "uint256",
          "name": "tokenId",
          "type": "uint256"
        }
      ],
      "name": "approve",
      "outputs": [],
      "stateMutability": "nonpayable",
      "type": "function"
    },
    {
      "inputs": [
        {
          "internalType": "address",
          "name": "owner",
          "type": "address"
        }
      ],
      "name": "balanceOf",
      "outputs": [
        {
          "internalType": "uint256",
          "name": "",
          "type": "uint256"
        }
      ],
      "stateMutability": "view",
      "type": "function"
    },
    {
      "inputs": [],
      "name": "fetchPenaltyHouses",
      "outputs": [
        {
          "components": [
            {
              "internalType": "uint256",
              "name": "tokenId",
              "type": "uint256"
            },
            {
              "internalType": "uint256",
              "name": "garbageValue",
              "type": "uint256"
            },
            {
              "internalType": "uint256",
              "name": "garbageCollecteddays",
              "type": "uint256"
            },
            {
              "internalType": "int256",
              "name": "rewardPoints",
              "type": "int256"
            },
            {
              "internalType": "uint256",
              "name": "rewardmonths",
              "type": "uint256"
            },
            {
              "internalType": "uint256",
              "name": "penaltymonths",
              "type": "uint256"
            },
            {
              "internalType": "uint256",
              "name": "garbageCollectedTime",
              "type": "uint256"
            },
            {
              "internalType": "string",
              "name": "location",
              "type": "string"
            }
          ],
          "internalType": "struct WMAP_ORGANIZATION.garbageCollection[]",
          "name": "",
          "type": "tuple[]"
        }
      ],
      "stateMutability": "view",
      "type": "function"
    },
    {
      "inputs": [
        {
          "internalType": "uint256",
          "name": "tokenId",
          "type": "uint256"
        },
        {
          "internalType": "uint256",
          "name": "garbageValue",
          "type": "uint256"
        },
        {
          "internalType": "string",
          "name": "location",
          "type": "string"
        },
        {
          "internalType": "uint256",
          "name": "garbageWeightLimit",
          "type": "uint256"
        },
        {
          "internalType": "address",
          "name": "NFTOwner",
          "type": "address"
        },
        {
          "internalType": "address",
          "name": "WMAPToken",
          "type": "address"
        }
      ],
      "name": "garbageRecord",
      "outputs": [],
      "stateMutability": "nonpayable",
      "type": "function"
    },
    {
      "inputs": [
        {
          "internalType": "uint256",
          "name": "tokenId",
          "type": "uint256"
        }
      ],
      "name": "getApproved",
      "outputs": [
        {
          "internalType": "address",
          "name": "",
          "type": "address"
        }
      ],
      "stateMutability": "view",
      "type": "function"
    },
    {
      "inputs": [
        {
          "internalType": "uint256",
          "name": "tokenId",
          "type": "uint256"
        }
      ],
      "name": "getGarbageCollectionDetails",
      "outputs": [
        {
          "components": [
            {
              "internalType": "uint256",
              "name": "tokenId",
              "type": "uint256"
            },
            {
              "internalType": "uint256",
              "name": "garbageValue",
              "type": "uint256"
            },
            {
              "internalType": "uint256",
              "name": "garbageCollecteddays",
              "type": "uint256"
            },
            {
              "internalType": "int256",
              "name": "rewardPoints",
              "type": "int256"
            },
            {
              "internalType": "uint256",
              "name": "rewardmonths",
              "type": "uint256"
            },
            {
              "internalType": "uint256",
              "name": "penaltymonths",
              "type": "uint256"
            },
            {
              "internalType": "uint256",
              "name": "garbageCollectedTime",
              "type": "uint256"
            },
            {
              "internalType": "string",
              "name": "location",
              "type": "string"
            }
          ],
          "internalType": "struct WMAP_ORGANIZATION.garbageCollection",
          "name": "",
          "type": "tuple"
        }
      ],
      "stateMutability": "view",
      "type": "function"
    },
    {
      "inputs": [],
      "name": "getVehicleDetails",
      "outputs": [
        {
          "components": [
            {
              "internalType": "uint256",
              "name": "vehicleId",
              "type": "uint256"
            },
            {
              "internalType": "address",
              "name": "vehicle",
              "type": "address"
            },
            {
              "internalType": "string",
              "name": "vehicleNumber",
              "type": "string"
            }
          ],
          "internalType": "struct WMAP_ORGANIZATION.garbageVehicles[]",
          "name": "",
          "type": "tuple[]"
        }
      ],
      "stateMutability": "view",
      "type": "function"
    },
    {
      "inputs": [
        {
          "internalType": "address",
          "name": "owner",
          "type": "address"
        },
        {
          "internalType": "address",
          "name": "operator",
          "type": "address"
        }
      ],
      "name": "isApprovedForAll",
      "outputs": [
        {
          "internalType": "bool",
          "name": "",
          "type": "bool"
        }
      ],
      "stateMutability": "view",
      "type": "function"
    },
    {
      "inputs": [],
      "name": "name",
      "outputs": [
        {
          "internalType": "string",
          "name": "",
          "type": "string"
        }
      ],
      "stateMutability": "view",
      "type": "function"
    },
    {
      "inputs": [
        {
          "internalType": "uint256",
          "name": "tokenId",
          "type": "uint256"
        }
      ],
      "name": "ownerOf",
      "outputs": [
        {
          "internalType": "address",
          "name": "",
          "type": "address"
        }
      ],
      "stateMutability": "view",
      "type": "function"
    },
    {
      "inputs": [
        {
          "internalType": "string",
          "name": "vehicleNumber",
          "type": "string"
        }
      ],
      "name": "registerVehicle",
      "outputs": [],
      "stateMutability": "nonpayable",
      "type": "function"
    },
    {
      "inputs": [
        {
          "internalType": "address",
          "name": "from",
          "type": "address"
        },
        {
          "internalType": "address",
          "name": "to",
          "type": "address"
        },
        {
          "internalType": "uint256",
          "name": "tokenId",
          "type": "uint256"
        }
      ],
      "name": "safeTransferFrom",
      "outputs": [],
      "stateMutability": "nonpayable",
      "type": "function"
    },
    {
      "inputs": [
        {
          "internalType": "address",
          "name": "from",
          "type": "address"
        },
        {
          "internalType": "address",
          "name": "to",
          "type": "address"
        },
        {
          "internalType": "uint256",
          "name": "tokenId",
          "type": "uint256"
        },
        {
          "internalType": "bytes",
          "name": "data",
          "type": "bytes"
        }
      ],
      "name": "safeTransferFrom",
      "outputs": [],
      "stateMutability": "nonpayable",
      "type": "function"
    },
    {
      "inputs": [
        {
          "internalType": "address",
          "name": "operator",
          "type": "address"
        },
        {
          "internalType": "bool",
          "name": "approved",
          "type": "bool"
        }
      ],
      "name": "setApprovalForAll",
      "outputs": [],
      "stateMutability": "nonpayable",
      "type": "function"
    },
    {
      "inputs": [
        {
          "internalType": "bytes4",
          "name": "interfaceId",
          "type": "bytes4"
        }
      ],
      "name": "supportsInterface",
      "outputs": [
        {
          "internalType": "bool",
          "name": "",
          "type": "bool"
        }
      ],
      "stateMutability": "view",
      "type": "function"
    },
    {
      "inputs": [],
      "name": "symbol",
      "outputs": [
        {
          "internalType": "string",
          "name": "",
          "type": "string"
        }
      ],
      "stateMutability": "view",
      "type": "function"
    },
    {
      "inputs": [
        {
          "internalType": "uint256",
          "name": "tokenId",
          "type": "uint256"
        }
      ],
      "name": "tokenURI",
      "outputs": [
        {
          "internalType": "string",
          "name": "",
          "type": "string"
        }
      ],
      "stateMutability": "view",
      "type": "function"
    },
    {
      "inputs": [
        {
          "internalType": "address",
          "name": "from",
          "type": "address"
        },
        {
          "internalType": "address",
          "name": "to",
          "type": "address"
        },
        {
          "internalType": "uint256",
          "name": "tokenId",
          "type": "uint256"
        }
      ],
      "name": "transferFrom",
      "outputs": [],
      "stateMutability": "nonpayable",
      "type": "function"
    }
  ],
  "bytecode": "0x60806040523480156200001157600080fd5b506040805180820182526005815264145493919560da1b60208083019182528351808501909452600384526205258560ec1b9084015281519192916200005a916000916200008b565b508051620000709060019060208401906200008b565b5050600980546001600160a01b03191633179055506200016e565b828054620000999062000131565b90600052602060002090601f016020900481019282620000bd576000855562000108565b82601f10620000d857805160ff191683800117855562000108565b8280016001018555821562000108579182015b8281111562000108578251825591602001919060010190620000eb565b50620001169291506200011a565b5090565b5b808211156200011657600081556001016200011b565b600181811c908216806200014657607f821691505b602082108114156200016857634e487b7160e01b600052602260045260246000fd5b50919050565b612084806200017e6000396000f3fe608060405234801561001057600080fd5b50600436106101155760003560e01c806370a08231116100a257806395d89b411161007157806395d89b4114610261578063a22cb46514610269578063b88d4fde1461027c578063c87b56dd1461028f578063e985e9c5146102a257600080fd5b806370a08231146101f6578063818ead351461021757806383b26ad71461023757806388d277a01461024c57600080fd5b8063095ea7b3116100e9578063095ea7b31461019757806323b872dd146101aa5780632bfe5ab9146101bd57806342842e0e146101d05780636352211e146101e357600080fd5b80626bd2af1461011a57806301ffc9a71461012f57806306fdde0314610157578063081812fc1461016c575b600080fd5b61012d610128366004611ae7565b6102de565b005b61014261013d366004611aaf565b610365565b60405190151581526020015b60405180910390f35b61015f6103b7565b60405161014e9190611dab565b61017f61017a366004611b1a565b610449565b6040516001600160a01b03909116815260200161014e565b61012d6101a5366004611a86565b610470565b61012d6101b8366004611998565b61058b565b61012d6101cb366004611b32565b6105bc565b61012d6101de366004611998565b6108ad565b61017f6101f1366004611b1a565b6108c8565b61020961020436600461194c565b610928565b60405190815260200161014e565b61022a610225366004611b1a565b6109ae565b60405161014e9190611e5e565b61023f610ab8565b60405161014e9190611cc3565b610254610d17565b60405161014e9190611d24565b61015f610f6b565b61012d610277366004611a4c565b610f7a565b61012d61028a3660046119d3565b610f89565b61015f61029d366004611b1a565b610fc1565b6101426102b0366004611966565b6001600160a01b03918216600090815260056020908152604080832093909416825291909152205460ff1690565b6102ec600880546001019055565b80600b60006102fa60085490565b8152602001908152602001600020600201908051906020019061031e9291906117bd565b5033600b600061032d60085490565b815260200190815260200160002060010160006101000a8154816001600160a01b0302191690836001600160a01b0316021790555050565b60006001600160e01b031982166380ac58cd60e01b148061039657506001600160e01b03198216635b5e139f60e01b145b806103b157506301ffc9a760e01b6001600160e01b03198316145b92915050565b6060600080546103c690611f60565b80601f01602080910402602001604051908101604052809291908181526020018280546103f290611f60565b801561043f5780601f106104145761010080835404028352916020019161043f565b820191906000526020600020905b81548152906001019060200180831161042257829003601f168201915b5050505050905090565b6000610454826110d2565b506000908152600460205260409020546001600160a01b031690565b600061047b826108c8565b9050806001600160a01b0316836001600160a01b031614156104ee5760405162461bcd60e51b815260206004820152602160248201527f4552433732313a20617070726f76616c20746f2063757272656e74206f776e656044820152603960f91b60648201526084015b60405180910390fd5b336001600160a01b038216148061050a575061050a81336102b0565b61057c5760405162461bcd60e51b815260206004820152603e60248201527f4552433732313a20617070726f76652063616c6c6572206973206e6f7420746f60448201527f6b656e206f776e6572206e6f7220617070726f76656420666f7220616c6c000060648201526084016104e5565b6105868383611134565b505050565b61059533826111a2565b6105b15760405162461bcd60e51b81526004016104e590611e10565b610586838383611220565b6000868152600a6020908152604090912087815560018101879055855142926105ec9260070191908801906117bd565b506000878152600a6020526040812060068101839055600201805460019290610616908490611eb2565b909155505083861161064f576000878152600a60205260408120600301805460019290610644908490611e71565b909155506106779050565b6000878152600a60205260408120600301805460019290610671908490611ede565b90915550505b6000878152600a6020526040902060020154601d14156108a4576000878152600a6020526040902060030154601113610797576000878152600a602052604081206004018054600192906106cc908490611eb2565b90915550506000878152600a6020526040808220600581018390556003015490516001600160a01b03868116602483015260448201929092529084169060640160408051601f198184030181529181526020820180516001600160e01b031663a9059cbb60e01b179052516107419190611c3b565b6000604051808303816000865af19150503d806000811461077e576040519150601f19603f3d011682016040523d82523d6000602084013e610783565b606091505b505090508061079157600080fd5b5061088a565b6000878152600a6020526040902060030154601014156107c8576000878152600a602052604081206005015561088a565b6000878152600a6020526040902060030154600f1261088a576000878152600a6020526040902060030154600113610827576000878152600a6020526040812060040180546001929061081c908490611f1d565b9091555061084f9050565b6000878152600a60205260408120600501805460019290610849908490611eb2565b90915550505b6000878152600a60205260409020600501546003141561088a5761088a6040518060600160405280602c8152602001612023602c91396113bc565b6000878152600a6020526040812060028101829055600301555b50505050505050565b61058683838360405180602001604052806000815250610f89565b6000818152600260205260408120546001600160a01b0316806103b15760405162461bcd60e51b8152602060048201526018602482015277115490cdcc8c4e881a5b9d985b1a59081d1bdad95b88125160421b60448201526064016104e5565b60006001600160a01b0382166109925760405162461bcd60e51b815260206004820152602960248201527f4552433732313a2061646472657373207a65726f206973206e6f7420612076616044820152683634b21037bbb732b960b91b60648201526084016104e5565b506001600160a01b031660009081526003602052604090205490565b6109b6611841565b6000600a60008481526020019081526020016000206040518061010001604052908160008201548152602001600182015481526020016002820154815260200160038201548152602001600482015481526020016005820154815260200160068201548152602001600782018054610a2d90611f60565b80601f0160208091040260200160405190810160405280929190818152602001828054610a5990611f60565b8015610aa65780601f10610a7b57610100808354040283529160200191610aa6565b820191906000526020600020905b815481529060010190602001808311610a8957829003601f168201915b50505091909252509195945050505050565b60606000610ac560075490565b905060008060005b83811015610b1d576003600a6000610ae6846001611eb2565b81526020019081526020016000206005015410610b0b57610b08600184611eb2565b92505b80610b1581611f9b565b915050610acd565b5060008267ffffffffffffffff811115610b4757634e487b7160e01b600052604160045260246000fd5b604051908082528060200260200182016040528015610b8057816020015b610b6d611841565b815260200190600190039081610b655790505b50905060005b84811015610d0e576003600a6000610b9f846001611eb2565b81526020019081526020016000206005015410610cfc576000610bc3826001611eb2565b90506000600a60008381526020019081526020016000209050806040518061010001604052908160008201548152602001600182015481526020016002820154815260200160038201548152602001600482015481526020016005820154815260200160068201548152602001600782018054610c3f90611f60565b80601f0160208091040260200160405190810160405280929190818152602001828054610c6b90611f60565b8015610cb85780601f10610c8d57610100808354040283529160200191610cb8565b820191906000526020600020905b815481529060010190602001808311610c9b57829003601f168201915b505050505081525050848681518110610ce157634e487b7160e01b600052603260045260246000fd5b6020908102919091010152610cf7600186611eb2565b945050505b80610d0681611f9b565b915050610b86565b50949350505050565b60606000610d2460075490565b905060008060005b83811015610d875733600b6000610d44846001611eb2565b81526020810191909152604001600020600101546001600160a01b03161415610d7557610d72600184611eb2565b92505b80610d7f81611f9b565b915050610d2c565b5060008267ffffffffffffffff811115610db157634e487b7160e01b600052604160045260246000fd5b604051908082528060200260200182016040528015610dfe57816020015b60408051606080820183526000808352602083015291810191909152815260200190600190039081610dcf5790505b50905060005b84811015610d0e5733600b6000610e1c846001611eb2565b81526020810191909152604001600020600101546001600160a01b03161415610f59576000610e4c826001611eb2565b6000818152600b602090815260409182902082516060810184528154815260018201546001600160a01b0316928101929092526002810180549495509093919284929084019190610e9c90611f60565b80601f0160208091040260200160405190810160405280929190818152602001828054610ec890611f60565b8015610f155780601f10610eea57610100808354040283529160200191610f15565b820191906000526020600020905b815481529060010190602001808311610ef857829003601f168201915b505050505081525050848681518110610f3e57634e487b7160e01b600052603260045260246000fd5b6020908102919091010152610f54600186611eb2565b945050505b80610f6381611f9b565b915050610e04565b6060600180546103c690611f60565b610f853383836113ff565b5050565b610f9333836111a2565b610faf5760405162461bcd60e51b81526004016104e590611e10565b610fbb848484846114ce565b50505050565b6060610fcc826110d2565b60008281526006602052604081208054610fe590611f60565b80601f016020809104026020016040519081016040528092919081815260200182805461101190611f60565b801561105e5780601f106110335761010080835404028352916020019161105e565b820191906000526020600020905b81548152906001019060200180831161104157829003601f168201915b50505050509050600061107c60408051602081019091526000815290565b905080516000141561108f575092915050565b8151156110c15780826040516020016110a9929190611c57565b60405160208183030381529060405292505050919050565b6110ca84611501565b949350505050565b6000818152600260205260409020546001600160a01b03166111315760405162461bcd60e51b8152602060048201526018602482015277115490cdcc8c4e881a5b9d985b1a59081d1bdad95b88125160421b60448201526064016104e5565b50565b600081815260046020526040902080546001600160a01b0319166001600160a01b0384169081179091558190611169826108c8565b6001600160a01b03167f8c5be1e5ebec7d5bd14f71427d1e84f3dd0314c0f7b2291e5b200ac8c7c3b92560405160405180910390a45050565b6000806111ae836108c8565b9050806001600160a01b0316846001600160a01b031614806111f557506001600160a01b0380821660009081526005602090815260408083209388168352929052205460ff165b806110ca5750836001600160a01b031661120e84610449565b6001600160a01b031614949350505050565b826001600160a01b0316611233826108c8565b6001600160a01b0316146112975760405162461bcd60e51b815260206004820152602560248201527f4552433732313a207472616e736665722066726f6d20696e636f72726563742060448201526437bbb732b960d91b60648201526084016104e5565b6001600160a01b0382166112f95760405162461bcd60e51b8152602060048201526024808201527f4552433732313a207472616e7366657220746f20746865207a65726f206164646044820152637265737360e01b60648201526084016104e5565b611304600082611134565b6001600160a01b038316600090815260036020526040812080546001929061132d908490611f1d565b90915550506001600160a01b038216600090815260036020526040812080546001929061135b908490611eb2565b909155505060008181526002602052604080822080546001600160a01b0319166001600160a01b0386811691821790925591518493918716917fddf252ad1be2c89b69c2b068fc378daa952ba7f163c4a11628f55a4df523b3ef91a4505050565b611131816040516024016113d09190611dab565b60408051601f198184030181529190526020810180516001600160e01b031663104c13eb60e21b179052611575565b816001600160a01b0316836001600160a01b031614156114615760405162461bcd60e51b815260206004820152601960248201527f4552433732313a20617070726f766520746f2063616c6c65720000000000000060448201526064016104e5565b6001600160a01b03838116600081815260056020908152604080832094871680845294825291829020805460ff191686151590811790915591519182527f17307eab39ab6107e8899845ad3d59bd9653f200f220920489ca2b5937696c31910160405180910390a3505050565b6114d9848484611220565b6114e584848484611596565b610fbb5760405162461bcd60e51b81526004016104e590611dbe565b606061150c826110d2565b600061152360408051602081019091526000815290565b90506000815111611543576040518060200160405280600081525061156e565b8061154d846116a3565b60405160200161155e929190611c57565b6040516020818303038152906040525b9392505050565b80516a636f6e736f6c652e6c6f67602083016000808483855afa5050505050565b60006001600160a01b0384163b1561169857604051630a85bd0160e11b81526001600160a01b0385169063150b7a02906115da903390899088908890600401611c86565b602060405180830381600087803b1580156115f457600080fd5b505af1925050508015611624575060408051601f3d908101601f1916820190925261162191810190611acb565b60015b61167e573d808015611652576040519150601f19603f3d011682016040523d82523d6000602084013e611657565b606091505b5080516116765760405162461bcd60e51b81526004016104e590611dbe565b805181602001fd5b6001600160e01b031916630a85bd0160e11b1490506110ca565b506001949350505050565b6060816116c75750506040805180820190915260018152600360fc1b602082015290565b8160005b81156116f157806116db81611f9b565b91506116ea9050600a83611eca565b91506116cb565b60008167ffffffffffffffff81111561171a57634e487b7160e01b600052604160045260246000fd5b6040519080825280601f01601f191660200182016040528015611744576020820181803683370190505b5090505b84156110ca57611759600183611f1d565b9150611766600a86611fb6565b611771906030611eb2565b60f81b81838151811061179457634e487b7160e01b600052603260045260246000fd5b60200101906001600160f81b031916908160001a9053506117b6600a86611eca565b9450611748565b8280546117c990611f60565b90600052602060002090601f0160209004810192826117eb5760008555611831565b82601f1061180457805160ff1916838001178555611831565b82800160010185558215611831579182015b82811115611831578251825591602001919060010190611816565b5061183d929150611886565b5090565b60405180610100016040528060008152602001600081526020016000815260200160008152602001600081526020016000815260200160008152602001606081525090565b5b8082111561183d5760008155600101611887565b600067ffffffffffffffff808411156118b6576118b6611ff6565b604051601f8501601f19908116603f011681019082821181831017156118de576118de611ff6565b816040528093508581528686860111156118f757600080fd5b858560208301376000602087830101525050509392505050565b80356001600160a01b038116811461192857600080fd5b919050565b600082601f83011261193d578081fd5b61156e8383356020850161189b565b60006020828403121561195d578081fd5b61156e82611911565b60008060408385031215611978578081fd5b61198183611911565b915061198f60208401611911565b90509250929050565b6000806000606084860312156119ac578081fd5b6119b584611911565b92506119c360208501611911565b9150604084013590509250925092565b600080600080608085870312156119e8578081fd5b6119f185611911565b93506119ff60208601611911565b925060408501359150606085013567ffffffffffffffff811115611a21578182fd5b8501601f81018713611a31578182fd5b611a408782356020840161189b565b91505092959194509250565b60008060408385031215611a5e578182fd5b611a6783611911565b915060208301358015158114611a7b578182fd5b809150509250929050565b60008060408385031215611a98578182fd5b611aa183611911565b946020939093013593505050565b600060208284031215611ac0578081fd5b813561156e8161200c565b600060208284031215611adc578081fd5b815161156e8161200c565b600060208284031215611af8578081fd5b813567ffffffffffffffff811115611b0e578182fd5b6110ca8482850161192d565b600060208284031215611b2b578081fd5b5035919050565b60008060008060008060c08789031215611b4a578182fd5b8635955060208701359450604087013567ffffffffffffffff811115611b6e578283fd5b611b7a89828a0161192d565b94505060608701359250611b9060808801611911565b9150611b9e60a08801611911565b90509295509295509295565b60008151808452611bc2816020860160208601611f34565b601f01601f19169290920160200192915050565b6000610100825184526020830151602085015260408301516040850152606083015160608501526080830151608085015260a083015160a085015260c083015160c085015260e08301518160e0860152611c3282860182611baa565b95945050505050565b60008251611c4d818460208701611f34565b9190910192915050565b60008351611c69818460208801611f34565b835190830190611c7d818360208801611f34565b01949350505050565b6001600160a01b0385811682528416602082015260408101839052608060608201819052600090611cb990830184611baa565b9695505050505050565b6000602080830181845280855180835260408601915060408160051b8701019250838701855b82811015611d1757603f19888603018452611d05858351611bd6565b94509285019290850190600101611ce9565b5092979650505050505050565b60006020808301818452808551808352604092508286019150828160051b870101848801865b83811015611d9d57888303603f19018552815180518452878101516001600160a01b0316888501528601516060878501819052611d8981860183611baa565b968901969450505090860190600101611d4a565b509098975050505050505050565b60208152600061156e6020830184611baa565b60208082526032908201527f4552433732313a207472616e7366657220746f206e6f6e20455243373231526560408201527131b2b4bb32b91034b6b83632b6b2b73a32b960711b606082015260800190565b6020808252602e908201527f4552433732313a2063616c6c6572206973206e6f7420746f6b656e206f776e6560408201526d1c881b9bdc88185c1c1c9bdd995960921b606082015260800190565b60208152600061156e6020830184611bd6565b600080821280156001600160ff1b0384900385131615611e9357611e93611fca565b600160ff1b8390038412811615611eac57611eac611fca565b50500190565b60008219821115611ec557611ec5611fca565b500190565b600082611ed957611ed9611fe0565b500490565b60008083128015600160ff1b850184121615611efc57611efc611fca565b6001600160ff1b0384018313811615611f1757611f17611fca565b50500390565b600082821015611f2f57611f2f611fca565b500390565b60005b83811015611f4f578181015183820152602001611f37565b83811115610fbb5750506000910152565b600181811c90821680611f7457607f821691505b60208210811415611f9557634e487b7160e01b600052602260045260246000fd5b50919050565b6000600019821415611faf57611faf611fca565b5060010190565b600082611fc557611fc5611fe0565b500690565b634e487b7160e01b600052601160045260246000fd5b634e487b7160e01b600052601260045260246000fd5b634e487b7160e01b600052604160045260246000fd5b6001600160e01b03198116811461113157600080fdfe796f757220616374697669747920697320737573706963696f757320616e6420756e64657220726576696577a26469706673582212203df8089a75969eb2afb6a9d4ab474cfe1c15dcc51c0be44896dd3d80ad7be54564736f6c63430008040033",
  "linkReferences": {},
  "deployedLinkReferences": {}
}