{
  "_format": "hh-sol-artifact-1",
  "contractName": "WMAP",
  "sourceName": "contracts/wmap.sol",
  "abi": [
    {
      "inputs": [],
      "stateMutability": "nonpayable",
      "type": "constructor"
    },
    {
      "anonymous": false,
      "inputs": [
        {
          "indexed": true,
          "internalType": "address",
          "name": "owner",
          "type": "address"
        },
        {
          "indexed": true,
          "internalType": "address",
          "name": "approved",
          "type": "address"
        },
        {
          "indexed": true,
          "internalType": "uint256",
          "name": "tokenId",
          "type": "uint256"
        }
      ],
      "name": "Approval",
      "type": "event"
    },
    {
      "anonymous": false,
      "inputs": [
        {
          "indexed": true,
          "internalType": "address",
          "name": "owner",
          "type": "address"
        },
        {
          "indexed": true,
          "internalType": "address",
          "name": "operator",
          "type": "address"
        },
        {
          "indexed": false,
          "internalType": "bool",
          "name": "approved",
          "type": "bool"
        }
      ],
      "name": "ApprovalForAll",
      "type": "event"
    },
    {
      "anonymous": false,
      "inputs": [
        {
          "indexed": true,
          "internalType": "address",
          "name": "from",
          "type": "address"
        },
        {
          "indexed": true,
          "internalType": "address",
          "name": "to",
          "type": "address"
        },
        {
          "indexed": true,
          "internalType": "uint256",
          "name": "tokenId",
          "type": "uint256"
        }
      ],
      "name": "Transfer",
      "type": "event"
    },
    {
      "inputs": [
        {
          "internalType": "address",
          "name": "to",
          "type": "address"
        },
        {
          "internalType": "uint256",
          "name": "tokenId",
          "type": "uint256"
        }
      ],
      "name": "approve",
      "outputs": [],
      "stateMutability": "nonpayable",
      "type": "function"
    },
    {
      "inputs": [
        {
          "internalType": "address",
          "name": "owner",
          "type": "address"
        }
      ],
      "name": "balanceOf",
      "outputs": [
        {
          "internalType": "uint256",
          "name": "",
          "type": "uint256"
        }
      ],
      "stateMutability": "view",
      "type": "function"
    },
    {
      "inputs": [
        {
          "internalType": "uint256",
          "name": "tokenId",
          "type": "uint256"
        },
        {
          "internalType": "uint256",
          "name": "garbageValue",
          "type": "uint256"
        },
        {
          "internalType": "string",
          "name": "location",
          "type": "string"
        }
      ],
      "name": "garbageRecord",
      "outputs": [],
      "stateMutability": "nonpayable",
      "type": "function"
    },
    {
      "inputs": [
        {
          "internalType": "uint256",
          "name": "tokenId",
          "type": "uint256"
        }
      ],
      "name": "getApproved",
      "outputs": [
        {
          "internalType": "address",
          "name": "",
          "type": "address"
        }
      ],
      "stateMutability": "view",
      "type": "function"
    },
    {
      "inputs": [
        {
          "internalType": "uint256",
          "name": "tokenId",
          "type": "uint256"
        }
      ],
      "name": "getGarbageCollectionDetails",
      "outputs": [
        {
          "components": [
            {
              "internalType": "uint256",
              "name": "tokenId",
              "type": "uint256"
            },
            {
              "internalType": "uint256",
              "name": "garbageValue",
              "type": "uint256"
            },
            {
              "internalType": "uint256",
              "name": "garbageCollecteddays",
              "type": "uint256"
            },
            {
              "internalType": "int256",
              "name": "rewardPoints",
              "type": "int256"
            },
            {
              "internalType": "uint256",
              "name": "penaltymonths",
              "type": "uint256"
            },
            {
              "internalType": "uint256",
              "name": "garbageWeightLimit",
              "type": "uint256"
            },
            {
              "internalType": "uint256",
              "name": "garbageCollectedTime",
              "type": "uint256"
            },
            {
              "internalType": "string",
              "name": "location",
              "type": "string"
            }
          ],
          "internalType": "struct WMAP.garbageCollection",
          "name": "",
          "type": "tuple"
        }
      ],
      "stateMutability": "view",
      "type": "function"
    },
    {
      "inputs": [
        {
          "internalType": "uint256",
          "name": "tokenId",
          "type": "uint256"
        }
      ],
      "name": "getHomeDetails",
      "outputs": [
        {
          "components": [
            {
              "internalType": "uint256",
              "name": "tokenId",
              "type": "uint256"
            },
            {
              "internalType": "uint256",
              "name": "noOfPeople",
              "type": "uint256"
            },
            {
              "internalType": "string",
              "name": "OwnerName",
              "type": "string"
            },
            {
              "internalType": "address",
              "name": "OwnerAddress",
              "type": "address"
            },
            {
              "internalType": "string",
              "name": "houseAddress",
              "type": "string"
            },
            {
              "internalType": "string[]",
              "name": "memberName",
              "type": "string[]"
            },
            {
              "internalType": "uint256[]",
              "name": "verificationDetails",
              "type": "uint256[]"
            }
          ],
          "internalType": "struct WMAP.House",
          "name": "",
          "type": "tuple"
        }
      ],
      "stateMutability": "view",
      "type": "function"
    },
    {
      "inputs": [
        {
          "internalType": "address",
          "name": "owner",
          "type": "address"
        },
        {
          "internalType": "address",
          "name": "operator",
          "type": "address"
        }
      ],
      "name": "isApprovedForAll",
      "outputs": [
        {
          "internalType": "bool",
          "name": "",
          "type": "bool"
        }
      ],
      "stateMutability": "view",
      "type": "function"
    },
    {
      "inputs": [],
      "name": "name",
      "outputs": [
        {
          "internalType": "string",
          "name": "",
          "type": "string"
        }
      ],
      "stateMutability": "view",
      "type": "function"
    },
    {
      "inputs": [
        {
          "internalType": "uint256",
          "name": "tokenId",
          "type": "uint256"
        }
      ],
      "name": "ownerOf",
      "outputs": [
        {
          "internalType": "address",
          "name": "",
          "type": "address"
        }
      ],
      "stateMutability": "view",
      "type": "function"
    },
    {
      "inputs": [
        {
          "internalType": "string",
          "name": "OwnerName",
          "type": "string"
        },
        {
          "internalType": "uint256",
          "name": "verificationDetails",
          "type": "uint256"
        },
        {
          "internalType": "string",
          "name": "houseAddress",
          "type": "string"
        }
      ],
      "name": "registerHouse",
      "outputs": [],
      "stateMutability": "nonpayable",
      "type": "function"
    },
    {
      "inputs": [
        {
          "internalType": "uint256",
          "name": "tokenId",
          "type": "uint256"
        },
        {
          "internalType": "string",
          "name": "memberName",
          "type": "string"
        },
        {
          "internalType": "uint256",
          "name": "verificationDetails",
          "type": "uint256"
        }
      ],
      "name": "registerNewMember",
      "outputs": [],
      "stateMutability": "nonpayable",
      "type": "function"
    },
    {
      "inputs": [
        {
          "internalType": "uint256",
          "name": "tokenId",
          "type": "uint256"
        },
        {
          "internalType": "string",
          "name": "OwnerName",
          "type": "string"
        }
      ],
      "name": "registerOwner",
      "outputs": [],
      "stateMutability": "nonpayable",
      "type": "function"
    },
    {
      "inputs": [
        {
          "internalType": "uint256",
          "name": "tokenId",
          "type": "uint256"
        },
        {
          "internalType": "uint256",
          "name": "verificationDetails",
          "type": "uint256"
        }
      ],
      "name": "removeExistingMember",
      "outputs": [],
      "stateMutability": "nonpayable",
      "type": "function"
    },
    {
      "inputs": [
        {
          "internalType": "address",
          "name": "from",
          "type": "address"
        },
        {
          "internalType": "address",
          "name": "to",
          "type": "address"
        },
        {
          "internalType": "uint256",
          "name": "tokenId",
          "type": "uint256"
        }
      ],
      "name": "safeTransferFrom",
      "outputs": [],
      "stateMutability": "nonpayable",
      "type": "function"
    },
    {
      "inputs": [
        {
          "internalType": "address",
          "name": "from",
          "type": "address"
        },
        {
          "internalType": "address",
          "name": "to",
          "type": "address"
        },
        {
          "internalType": "uint256",
          "name": "tokenId",
          "type": "uint256"
        },
        {
          "internalType": "bytes",
          "name": "data",
          "type": "bytes"
        }
      ],
      "name": "safeTransferFrom",
      "outputs": [],
      "stateMutability": "nonpayable",
      "type": "function"
    },
    {
      "inputs": [
        {
          "internalType": "address",
          "name": "operator",
          "type": "address"
        },
        {
          "internalType": "bool",
          "name": "approved",
          "type": "bool"
        }
      ],
      "name": "setApprovalForAll",
      "outputs": [],
      "stateMutability": "nonpayable",
      "type": "function"
    },
    {
      "inputs": [
        {
          "internalType": "bytes4",
          "name": "interfaceId",
          "type": "bytes4"
        }
      ],
      "name": "supportsInterface",
      "outputs": [
        {
          "internalType": "bool",
          "name": "",
          "type": "bool"
        }
      ],
      "stateMutability": "view",
      "type": "function"
    },
    {
      "inputs": [],
      "name": "symbol",
      "outputs": [
        {
          "internalType": "string",
          "name": "",
          "type": "string"
        }
      ],
      "stateMutability": "view",
      "type": "function"
    },
    {
      "inputs": [
        {
          "internalType": "uint256",
          "name": "tokenId",
          "type": "uint256"
        }
      ],
      "name": "tokenURI",
      "outputs": [
        {
          "internalType": "string",
          "name": "",
          "type": "string"
        }
      ],
      "stateMutability": "view",
      "type": "function"
    },
    {
      "inputs": [
        {
          "internalType": "address",
          "name": "from",
          "type": "address"
        },
        {
          "internalType": "address",
          "name": "to",
          "type": "address"
        },
        {
          "internalType": "uint256",
          "name": "tokenId",
          "type": "uint256"
        }
      ],
      "name": "transferFrom",
      "outputs": [],
      "stateMutability": "nonpayable",
      "type": "function"
    }
  ],
  "bytecode": "0x60806040523480156200001157600080fd5b506040805180820182526005815264145493919560da1b60208083019182528351808501909452600384526205258560ec1b9084015281519192916200005a916000916200008b565b508051620000709060019060208401906200008b565b5050600880546001600160a01b03191633179055506200016e565b828054620000999062000131565b90600052602060002090601f016020900481019282620000bd576000855562000108565b82601f10620000d857805160ff191683800117855562000108565b8280016001018555821562000108579182015b8281111562000108578251825591602001919060010190620000eb565b50620001169291506200011a565b5090565b5b808211156200011657600081556001016200011b565b600181811c908216806200014657607f821691505b602082108114156200016857634e487b7160e01b600052602260045260246000fd5b50919050565b61243a806200017e6000396000f3fe608060405234801561001057600080fd5b506004361061012c5760003560e01c80636352211e116100ad578063b7a9964d11610071578063b7a9964d1461028f578063b88d4fde146102a2578063c6f16b28146102b5578063c87b56dd146102d5578063e985e9c5146102e857600080fd5b80636352211e1461022057806370a0823114610233578063818ead351461025457806395d89b4114610274578063a22cb4651461027c57600080fd5b80630bbb3291116100f45780630bbb3291146101c157806323b872dd146101d457806336c9b69c146101e757806342842e0e146101fa57806349880f631461020d57600080fd5b806301ffc9a71461013157806306fdde0314610159578063081812fc1461016e578063095ea7b3146101995780630afcc7a7146101ae575b600080fd5b61014461013f366004611d73565b610324565b60405190151581526020015b60405180910390f35b610161610376565b604051610150919061204b565b61018161017c366004611e15565b610408565b6040516001600160a01b039091168152602001610150565b6101ac6101a7366004611d4a565b61042f565b005b6101ac6101bc366004611e72565b61054a565b6101ac6101cf366004611ec0565b61064a565b6101ac6101e2366004611c5c565b6107c3565b6101ac6101f5366004611ee1565b6107f4565b6101ac610208366004611c5c565b6109d4565b6101ac61021b366004611e2d565b6109ef565b61018161022e366004611e15565b610ad4565b610246610241366004611c10565b610b34565b604051908152602001610150565b610267610262366004611e15565b610bba565b60405161015091906121a3565b610161610d04565b6101ac61028a366004611d10565b610d13565b6101ac61029d366004611dab565b610d22565b6101ac6102b0366004611c97565b610e2f565b6102c86102c3366004611e15565b610e61565b60405161015091906120fe565b6101616102e3366004611e15565b611152565b6101446102f6366004611c2a565b6001600160a01b03918216600090815260056020908152604080832093909416825291909152205460ff1690565b60006001600160e01b031982166380ac58cd60e01b148061035557506001600160e01b03198216635b5e139f60e01b145b8061037057506301ffc9a760e01b6001600160e01b03198316145b92915050565b60606000805461038590612316565b80601f01602080910402602001604051908101604052809291908181526020018280546103b190612316565b80156103fe5780601f106103d3576101008083540402835291602001916103fe565b820191906000526020600020905b8154815290600101906020018083116103e157829003601f168201915b5050505050905090565b600061041382611263565b506000908152600460205260409020546001600160a01b031690565b600061043a82610ad4565b9050806001600160a01b0316836001600160a01b031614156104ad5760405162461bcd60e51b815260206004820152602160248201527f4552433732313a20617070726f76616c20746f2063757272656e74206f776e656044820152603960f91b60648201526084015b60405180910390fd5b336001600160a01b03821614806104c957506104c981336102f6565b61053b5760405162461bcd60e51b815260206004820152603e60248201527f4552433732313a20617070726f76652063616c6c6572206973206e6f7420746f60448201527f6b656e206f776e6572206e6f7220617070726f76656420666f7220616c6c000060648201526084016104a4565b61054583836112c5565b505050565b6000838152600960205260409020600301546001600160a01b031633146105b35760405162461bcd60e51b815260206004820152601960248201527f6f6e6c79206f776e65722063616e20616464206d656d6265720000000000000060448201526064016104a4565b600083815260096020526040812060018082018054929391929091906105da908490612249565b909155505060018101546105ef906002612275565b6000858152600a602090815260408220600590810193909355918301805460018101825590825290829020855161062e93919092019190860190611a90565b5060060180546001810182556000918252602090912001555050565b6000828152600960205260409020600301546001600160a01b031633146106b35760405162461bcd60e51b815260206004820152601c60248201527f6f6e6c79206f776e65722063616e2072656d6f7665206d656d6265720000000060448201526064016104a4565b6000828152600960205260408120905b60068201548110156107bd57828260060182815481106106f357634e487b7160e01b600052603260045260246000fd5b906000526020600020015414156107ab5781600601818154811061072757634e487b7160e01b600052603260045260246000fd5b906000526020600020016000905581600501818154811061075857634e487b7160e01b600052603260045260246000fd5b90600052602060002001600061076e9190611b14565b600182600101600082825461078391906122d3565b90915550506001820154610798906002612275565b6000858152600a60205260409020600501555b806107b581612351565b9150506106c3565b50505050565b6107cd3382611333565b6107e95760405162461bcd60e51b81526004016104a4906120b0565b6105458383836113b1565b6000838152600a602090815260409091208481556001810184905582514292610824926007019190850190611a90565b506000848152600a602052604081206006810183905560020180546001929061084e908490612249565b90915550506000848152600a60205260409020600501548311610898576000848152600a6020526040812060030180546001929061088d908490612208565b909155506108c09050565b6000848152600a602052604081206003018054600192906108ba908490612294565b90915550505b6000848152600a6020526040902060020154601d14156107bd576000848152600a602052604090206003015460111361090a576000848152600a60205260408120600401556109b6565b6000848152600a60205260409020600301546010141561093b576000848152600a60205260408120600401556109b6565b6000848152600a6020526040902060030154600f126109b6576000848152600a60205260408120600401805460019290610976908490612249565b90915550506000848152600a6020526040902060040154600314156109b6576109b66040518060600160405280602c81526020016123d9602c913961154d565b5050506000908152600a602052604081206002810182905560030155565b61054583838360405180602001604052806000815250610e2f565b6000828152600960205260409020600301546001600160a01b03163314610a585760405162461bcd60e51b815260206004820152601f60248201527f6f6e6c79206f776e65722063616e206368616e6765206f776e6572736869700060448201526064016104a4565b6000600181610a68826002612275565b6000868152600960209081526040822088815560018082018790556005909101805491820181558352918190208751939450610aaa9392019190870190611a90565b506000948552600a6020526040852060058101919091556003810192909255506002019190915550565b6000818152600260205260408120546001600160a01b0316806103705760405162461bcd60e51b8152602060048201526018602482015277115490cdcc8c4e881a5b9d985b1a59081d1bdad95b88125160421b60448201526064016104a4565b60006001600160a01b038216610b9e5760405162461bcd60e51b815260206004820152602960248201527f4552433732313a2061646472657373207a65726f206973206e6f7420612076616044820152683634b21037bbb732b960b91b60648201526084016104a4565b506001600160a01b031660009081526003602052604090205490565b610c0260405180610100016040528060008152602001600081526020016000815260200160008152602001600081526020016000815260200160008152602001606081525090565b6000600a60008481526020019081526020016000206040518061010001604052908160008201548152602001600182015481526020016002820154815260200160038201548152602001600482015481526020016005820154815260200160068201548152602001600782018054610c7990612316565b80601f0160208091040260200160405190810160405280929190818152602001828054610ca590612316565b8015610cf25780601f10610cc757610100808354040283529160200191610cf2565b820191906000526020600020905b815481529060010190602001808311610cd557829003601f168201915b50505091909252509195945050505050565b60606001805461038590612316565b610d1e338383611590565b5050565b610d30600780546001019055565b6000610d3b60075490565b9050610d47338261165f565b8360096000610d5560075490565b81526020019081526020016000206002019080519060200190610d79929190611a90565b503360096000610d8860075490565b815260200190815260200160002060030160006101000a8154816001600160a01b0302191690836001600160a01b031602179055508160096000610dcb60075490565b81526020019081526020016000206004019080519060200190610def929190611a90565b5060096000610dfd60075490565b815260208082019290925260400160009081206006018054600181018255908252919020018390556107bd81856109ef565b610e393383611333565b610e555760405162461bcd60e51b81526004016104a4906120b0565b6107bd848484846117a1565b610eaa6040518060e0016040528060008152602001600081526020016060815260200160006001600160a01b031681526020016060815260200160608152602001606081525090565b6000600960008481526020019081526020016000206040518060e00160405290816000820154815260200160018201548152602001600282018054610eee90612316565b80601f0160208091040260200160405190810160405280929190818152602001828054610f1a90612316565b8015610f675780601f10610f3c57610100808354040283529160200191610f67565b820191906000526020600020905b815481529060010190602001808311610f4a57829003601f168201915b505050918352505060038201546001600160a01b03166020820152600482018054604090920191610f9790612316565b80601f0160208091040260200160405190810160405280929190818152602001828054610fc390612316565b80156110105780601f10610fe557610100808354040283529160200191611010565b820191906000526020600020905b815481529060010190602001808311610ff357829003601f168201915b5050505050815260200160058201805480602002602001604051908101604052809291908181526020016000905b828210156110ea57838290600052602060002001805461105d90612316565b80601f016020809104026020016040519081016040528092919081815260200182805461108990612316565b80156110d65780601f106110ab576101008083540402835291602001916110d6565b820191906000526020600020905b8154815290600101906020018083116110b957829003601f168201915b50505050508152602001906001019061103e565b50505050815260200160068201805480602002602001604051908101604052809291908181526020018280548015610cf257602002820191906000526020600020905b81548152602001906001019080831161112d5750505091909252509195945050505050565b606061115d82611263565b6000828152600660205260408120805461117690612316565b80601f01602080910402602001604051908101604052809291908181526020018280546111a290612316565b80156111ef5780601f106111c4576101008083540402835291602001916111ef565b820191906000526020600020905b8154815290600101906020018083116111d257829003601f168201915b50505050509050600061120d60408051602081019091526000815290565b9050805160001415611220575092915050565b81511561125257808260405160200161123a929190611fdf565b60405160208183030381529060405292505050919050565b61125b846117d4565b949350505050565b6000818152600260205260409020546001600160a01b03166112c25760405162461bcd60e51b8152602060048201526018602482015277115490cdcc8c4e881a5b9d985b1a59081d1bdad95b88125160421b60448201526064016104a4565b50565b600081815260046020526040902080546001600160a01b0319166001600160a01b03841690811790915581906112fa82610ad4565b6001600160a01b03167f8c5be1e5ebec7d5bd14f71427d1e84f3dd0314c0f7b2291e5b200ac8c7c3b92560405160405180910390a45050565b60008061133f83610ad4565b9050806001600160a01b0316846001600160a01b0316148061138657506001600160a01b0380821660009081526005602090815260408083209388168352929052205460ff165b8061125b5750836001600160a01b031661139f84610408565b6001600160a01b031614949350505050565b826001600160a01b03166113c482610ad4565b6001600160a01b0316146114285760405162461bcd60e51b815260206004820152602560248201527f4552433732313a207472616e736665722066726f6d20696e636f72726563742060448201526437bbb732b960d91b60648201526084016104a4565b6001600160a01b03821661148a5760405162461bcd60e51b8152602060048201526024808201527f4552433732313a207472616e7366657220746f20746865207a65726f206164646044820152637265737360e01b60648201526084016104a4565b6114956000826112c5565b6001600160a01b03831660009081526003602052604081208054600192906114be9084906122d3565b90915550506001600160a01b03821660009081526003602052604081208054600192906114ec908490612249565b909155505060008181526002602052604080822080546001600160a01b0319166001600160a01b0386811691821790925591518493918716917fddf252ad1be2c89b69c2b068fc378daa952ba7f163c4a11628f55a4df523b3ef91a4505050565b6112c281604051602401611561919061204b565b60408051601f198184030181529190526020810180516001600160e01b031663104c13eb60e21b179052611848565b816001600160a01b0316836001600160a01b031614156115f25760405162461bcd60e51b815260206004820152601960248201527f4552433732313a20617070726f766520746f2063616c6c65720000000000000060448201526064016104a4565b6001600160a01b03838116600081815260056020908152604080832094871680845294825291829020805460ff191686151590811790915591519182527f17307eab39ab6107e8899845ad3d59bd9653f200f220920489ca2b5937696c31910160405180910390a3505050565b6001600160a01b0382166116b55760405162461bcd60e51b815260206004820181905260248201527f4552433732313a206d696e7420746f20746865207a65726f206164647265737360448201526064016104a4565b6000818152600260205260409020546001600160a01b03161561171a5760405162461bcd60e51b815260206004820152601c60248201527f4552433732313a20746f6b656e20616c7265616479206d696e7465640000000060448201526064016104a4565b6001600160a01b0382166000908152600360205260408120805460019290611743908490612249565b909155505060008181526002602052604080822080546001600160a01b0319166001600160a01b03861690811790915590518392907fddf252ad1be2c89b69c2b068fc378daa952ba7f163c4a11628f55a4df523b3ef908290a45050565b6117ac8484846113b1565b6117b884848484611869565b6107bd5760405162461bcd60e51b81526004016104a49061205e565b60606117df82611263565b60006117f660408051602081019091526000815290565b905060008151116118165760405180602001604052806000815250611841565b8061182084611976565b604051602001611831929190611fdf565b6040516020818303038152906040525b9392505050565b80516a636f6e736f6c652e6c6f67602083016000808483855afa5050505050565b60006001600160a01b0384163b1561196b57604051630a85bd0160e11b81526001600160a01b0385169063150b7a02906118ad90339089908890889060040161200e565b602060405180830381600087803b1580156118c757600080fd5b505af19250505080156118f7575060408051601f3d908101601f191682019092526118f491810190611d8f565b60015b611951573d808015611925576040519150601f19603f3d011682016040523d82523d6000602084013e61192a565b606091505b5080516119495760405162461bcd60e51b81526004016104a49061205e565b805181602001fd5b6001600160e01b031916630a85bd0160e11b14905061125b565b506001949350505050565b60608161199a5750506040805180820190915260018152600360fc1b602082015290565b8160005b81156119c457806119ae81612351565b91506119bd9050600a83612261565b915061199e565b60008167ffffffffffffffff8111156119ed57634e487b7160e01b600052604160045260246000fd5b6040519080825280601f01601f191660200182016040528015611a17576020820181803683370190505b5090505b841561125b57611a2c6001836122d3565b9150611a39600a8661236c565b611a44906030612249565b60f81b818381518110611a6757634e487b7160e01b600052603260045260246000fd5b60200101906001600160f81b031916908160001a905350611a89600a86612261565b9450611a1b565b828054611a9c90612316565b90600052602060002090601f016020900481019282611abe5760008555611b04565b82601f10611ad757805160ff1916838001178555611b04565b82800160010185558215611b04579182015b82811115611b04578251825591602001919060010190611ae9565b50611b10929150611b4a565b5090565b508054611b2090612316565b6000825580601f10611b30575050565b601f0160209004906000526020600020908101906112c291905b5b80821115611b105760008155600101611b4b565b600067ffffffffffffffff80841115611b7a57611b7a6123ac565b604051601f8501601f19908116603f01168101908282118183101715611ba257611ba26123ac565b81604052809350858152868686011115611bbb57600080fd5b858560208301376000602087830101525050509392505050565b80356001600160a01b0381168114611bec57600080fd5b919050565b600082601f830112611c01578081fd5b61184183833560208501611b5f565b600060208284031215611c21578081fd5b61184182611bd5565b60008060408385031215611c3c578081fd5b611c4583611bd5565b9150611c5360208401611bd5565b90509250929050565b600080600060608486031215611c70578081fd5b611c7984611bd5565b9250611c8760208501611bd5565b9150604084013590509250925092565b60008060008060808587031215611cac578081fd5b611cb585611bd5565b9350611cc360208601611bd5565b925060408501359150606085013567ffffffffffffffff811115611ce5578182fd5b8501601f81018713611cf5578182fd5b611d0487823560208401611b5f565b91505092959194509250565b60008060408385031215611d22578182fd5b611d2b83611bd5565b915060208301358015158114611d3f578182fd5b809150509250929050565b60008060408385031215611d5c578182fd5b611d6583611bd5565b946020939093013593505050565b600060208284031215611d84578081fd5b8135611841816123c2565b600060208284031215611da0578081fd5b8151611841816123c2565b600080600060608486031215611dbf578283fd5b833567ffffffffffffffff80821115611dd6578485fd5b611de287838801611bf1565b9450602086013593506040860135915080821115611dfe578283fd5b50611e0b86828701611bf1565b9150509250925092565b600060208284031215611e26578081fd5b5035919050565b60008060408385031215611e3f578182fd5b82359150602083013567ffffffffffffffff811115611e5c578182fd5b611e6885828601611bf1565b9150509250929050565b600080600060608486031215611e86578283fd5b83359250602084013567ffffffffffffffff811115611ea3578283fd5b611eaf86828701611bf1565b925050604084013590509250925092565b60008060408385031215611ed2578182fd5b50508035926020909101359150565b600080600060608486031215611ef5578081fd5b8335925060208401359150604084013567ffffffffffffffff811115611f19578182fd5b611e0b86828701611bf1565b600081518084526020808501808196508360051b81019150828601855b85811015611f6c578284038952611f5a848351611fb3565b98850198935090840190600101611f42565b5091979650505050505050565b6000815180845260208085019450808401835b83811015611fa857815187529582019590820190600101611f8c565b509495945050505050565b60008151808452611fcb8160208601602086016122ea565b601f01601f19169290920160200192915050565b60008351611ff18184602088016122ea565b8351908301906120058183602088016122ea565b01949350505050565b6001600160a01b038581168252841660208201526040810183905260806060820181905260009061204190830184611fb3565b9695505050505050565b6020815260006118416020830184611fb3565b60208082526032908201527f4552433732313a207472616e7366657220746f206e6f6e20455243373231526560408201527131b2b4bb32b91034b6b83632b6b2b73a32b960711b606082015260800190565b6020808252602e908201527f4552433732313a2063616c6c6572206973206e6f7420746f6b656e206f776e6560408201526d1c881b9bdc88185c1c1c9bdd995960921b606082015260800190565b6020815281516020820152602082015160408201526000604083015160e0606084015261212f610100840182611fb3565b905060018060a01b0360608501511660808401526080840151601f19808584030160a086015261215f8383611fb3565b925060a08601519150808584030160c086015261217c8383611f25565b925060c08601519150808584030160e08601525061219a8282611f79565b95945050505050565b6020815281516020820152602082015160408201526040820151606082015260608201516080820152608082015160a082015260a082015160c082015260c082015160e0820152600060e083015161010080818501525061125b610120840182611fb3565b600080821280156001600160ff1b038490038513161561222a5761222a612380565b600160ff1b839003841281161561224357612243612380565b50500190565b6000821982111561225c5761225c612380565b500190565b60008261227057612270612396565b500490565b600081600019048311821515161561228f5761228f612380565b500290565b60008083128015600160ff1b8501841216156122b2576122b2612380565b6001600160ff1b03840183138116156122cd576122cd612380565b50500390565b6000828210156122e5576122e5612380565b500390565b60005b838110156123055781810151838201526020016122ed565b838111156107bd5750506000910152565b600181811c9082168061232a57607f821691505b6020821081141561234b57634e487b7160e01b600052602260045260246000fd5b50919050565b600060001982141561236557612365612380565b5060010190565b60008261237b5761237b612396565b500690565b634e487b7160e01b600052601160045260246000fd5b634e487b7160e01b600052601260045260246000fd5b634e487b7160e01b600052604160045260246000fd5b6001600160e01b0319811681146112c257600080fdfe796f757220616374697669747920697320737573706963696f757320616e6420756e64657220726576696577a2646970667358221220ac4da7625d7089e7fb1d5a1cf692a90b6eec8c85718273902067be33637b04e264736f6c63430008040033",
  "linkReferences": {},
  "deployedLinkReferences": {}
}