{
  "_format": "hh-sol-artifact-1",
  "contractName": "WMAP",
  "sourceName": "contracts/wmap.sol",
  "abi": [
    {
      "inputs": [],
      "stateMutability": "nonpayable",
      "type": "constructor"
    },
    {
      "anonymous": false,
      "inputs": [
        {
          "indexed": true,
          "internalType": "address",
          "name": "owner",
          "type": "address"
        },
        {
          "indexed": true,
          "internalType": "address",
          "name": "approved",
          "type": "address"
        },
        {
          "indexed": true,
          "internalType": "uint256",
          "name": "tokenId",
          "type": "uint256"
        }
      ],
      "name": "Approval",
      "type": "event"
    },
    {
      "anonymous": false,
      "inputs": [
        {
          "indexed": true,
          "internalType": "address",
          "name": "owner",
          "type": "address"
        },
        {
          "indexed": true,
          "internalType": "address",
          "name": "operator",
          "type": "address"
        },
        {
          "indexed": false,
          "internalType": "bool",
          "name": "approved",
          "type": "bool"
        }
      ],
      "name": "ApprovalForAll",
      "type": "event"
    },
    {
      "anonymous": false,
      "inputs": [
        {
          "indexed": true,
          "internalType": "address",
          "name": "from",
          "type": "address"
        },
        {
          "indexed": true,
          "internalType": "address",
          "name": "to",
          "type": "address"
        },
        {
          "indexed": true,
          "internalType": "uint256",
          "name": "tokenId",
          "type": "uint256"
        }
      ],
      "name": "Transfer",
      "type": "event"
    },
    {
      "inputs": [
        {
          "internalType": "address",
          "name": "to",
          "type": "address"
        },
        {
          "internalType": "uint256",
          "name": "tokenId",
          "type": "uint256"
        }
      ],
      "name": "approve",
      "outputs": [],
      "stateMutability": "nonpayable",
      "type": "function"
    },
    {
      "inputs": [
        {
          "internalType": "address",
          "name": "owner",
          "type": "address"
        }
      ],
      "name": "balanceOf",
      "outputs": [
        {
          "internalType": "uint256",
          "name": "",
          "type": "uint256"
        }
      ],
      "stateMutability": "view",
      "type": "function"
    },
    {
      "inputs": [],
      "name": "fetchHouse",
      "outputs": [
        {
          "components": [
            {
              "internalType": "uint256",
              "name": "tokenId",
              "type": "uint256"
            },
            {
              "internalType": "uint256",
              "name": "noOfPeople",
              "type": "uint256"
            },
            {
              "internalType": "string",
              "name": "OwnerName",
              "type": "string"
            },
            {
              "internalType": "address",
              "name": "OwnerAddress",
              "type": "address"
            },
            {
              "internalType": "string",
              "name": "houseAddress",
              "type": "string"
            },
            {
              "internalType": "string[]",
              "name": "memberName",
              "type": "string[]"
            },
            {
              "internalType": "uint256[]",
              "name": "verificationDetails",
              "type": "uint256[]"
            }
          ],
          "internalType": "struct WMAP.House[]",
          "name": "",
          "type": "tuple[]"
        }
      ],
      "stateMutability": "view",
      "type": "function"
    },
    {
      "inputs": [
        {
          "internalType": "uint256",
          "name": "tokenId",
          "type": "uint256"
        },
        {
          "internalType": "uint256",
          "name": "garbageValue",
          "type": "uint256"
        },
        {
          "internalType": "string",
          "name": "location",
          "type": "string"
        }
      ],
      "name": "garbageRecord",
      "outputs": [],
      "stateMutability": "nonpayable",
      "type": "function"
    },
    {
      "inputs": [
        {
          "internalType": "uint256",
          "name": "tokenId",
          "type": "uint256"
        }
      ],
      "name": "getApproved",
      "outputs": [
        {
          "internalType": "address",
          "name": "",
          "type": "address"
        }
      ],
      "stateMutability": "view",
      "type": "function"
    },
    {
      "inputs": [
        {
          "internalType": "uint256",
          "name": "tokenId",
          "type": "uint256"
        }
      ],
      "name": "getGarbageCollectionDetails",
      "outputs": [
        {
          "components": [
            {
              "internalType": "uint256",
              "name": "tokenId",
              "type": "uint256"
            },
            {
              "internalType": "uint256",
              "name": "garbageValue",
              "type": "uint256"
            },
            {
              "internalType": "uint256",
              "name": "garbageCollecteddays",
              "type": "uint256"
            },
            {
              "internalType": "int256",
              "name": "rewardPoints",
              "type": "int256"
            },
            {
              "internalType": "uint256",
              "name": "penaltymonths",
              "type": "uint256"
            },
            {
              "internalType": "uint256",
              "name": "garbageWeightLimit",
              "type": "uint256"
            },
            {
              "internalType": "uint256",
              "name": "garbageCollectedTime",
              "type": "uint256"
            },
            {
              "internalType": "string",
              "name": "location",
              "type": "string"
            }
          ],
          "internalType": "struct WMAP.garbageCollection",
          "name": "",
          "type": "tuple"
        }
      ],
      "stateMutability": "view",
      "type": "function"
    },
    {
      "inputs": [
        {
          "internalType": "uint256",
          "name": "tokenId",
          "type": "uint256"
        }
      ],
      "name": "getHomeDetails",
      "outputs": [
        {
          "components": [
            {
              "internalType": "uint256",
              "name": "tokenId",
              "type": "uint256"
            },
            {
              "internalType": "uint256",
              "name": "noOfPeople",
              "type": "uint256"
            },
            {
              "internalType": "string",
              "name": "OwnerName",
              "type": "string"
            },
            {
              "internalType": "address",
              "name": "OwnerAddress",
              "type": "address"
            },
            {
              "internalType": "string",
              "name": "houseAddress",
              "type": "string"
            },
            {
              "internalType": "string[]",
              "name": "memberName",
              "type": "string[]"
            },
            {
              "internalType": "uint256[]",
              "name": "verificationDetails",
              "type": "uint256[]"
            }
          ],
          "internalType": "struct WMAP.House",
          "name": "",
          "type": "tuple"
        }
      ],
      "stateMutability": "view",
      "type": "function"
    },
    {
      "inputs": [
        {
          "internalType": "address",
          "name": "owner",
          "type": "address"
        },
        {
          "internalType": "address",
          "name": "operator",
          "type": "address"
        }
      ],
      "name": "isApprovedForAll",
      "outputs": [
        {
          "internalType": "bool",
          "name": "",
          "type": "bool"
        }
      ],
      "stateMutability": "view",
      "type": "function"
    },
    {
      "inputs": [],
      "name": "name",
      "outputs": [
        {
          "internalType": "string",
          "name": "",
          "type": "string"
        }
      ],
      "stateMutability": "view",
      "type": "function"
    },
    {
      "inputs": [
        {
          "internalType": "uint256",
          "name": "tokenId",
          "type": "uint256"
        }
      ],
      "name": "ownerOf",
      "outputs": [
        {
          "internalType": "address",
          "name": "",
          "type": "address"
        }
      ],
      "stateMutability": "view",
      "type": "function"
    },
    {
      "inputs": [
        {
          "internalType": "string",
          "name": "OwnerName",
          "type": "string"
        },
        {
          "internalType": "uint256",
          "name": "verificationDetails",
          "type": "uint256"
        },
        {
          "internalType": "string",
          "name": "houseAddress",
          "type": "string"
        }
      ],
      "name": "registerHouse",
      "outputs": [],
      "stateMutability": "nonpayable",
      "type": "function"
    },
    {
      "inputs": [
        {
          "internalType": "uint256",
          "name": "tokenId",
          "type": "uint256"
        },
        {
          "internalType": "string",
          "name": "memberName",
          "type": "string"
        },
        {
          "internalType": "uint256",
          "name": "verificationDetails",
          "type": "uint256"
        }
      ],
      "name": "registerNewMember",
      "outputs": [],
      "stateMutability": "nonpayable",
      "type": "function"
    },
    {
      "inputs": [
        {
          "internalType": "uint256",
          "name": "tokenId",
          "type": "uint256"
        },
        {
          "internalType": "string",
          "name": "OwnerName",
          "type": "string"
        }
      ],
      "name": "registerOwner",
      "outputs": [],
      "stateMutability": "nonpayable",
      "type": "function"
    },
    {
      "inputs": [
        {
          "internalType": "uint256",
          "name": "tokenId",
          "type": "uint256"
        },
        {
          "internalType": "uint256",
          "name": "verificationDetails",
          "type": "uint256"
        }
      ],
      "name": "removeExistingMember",
      "outputs": [],
      "stateMutability": "nonpayable",
      "type": "function"
    },
    {
      "inputs": [
        {
          "internalType": "address",
          "name": "from",
          "type": "address"
        },
        {
          "internalType": "address",
          "name": "to",
          "type": "address"
        },
        {
          "internalType": "uint256",
          "name": "tokenId",
          "type": "uint256"
        }
      ],
      "name": "safeTransferFrom",
      "outputs": [],
      "stateMutability": "nonpayable",
      "type": "function"
    },
    {
      "inputs": [
        {
          "internalType": "address",
          "name": "from",
          "type": "address"
        },
        {
          "internalType": "address",
          "name": "to",
          "type": "address"
        },
        {
          "internalType": "uint256",
          "name": "tokenId",
          "type": "uint256"
        },
        {
          "internalType": "bytes",
          "name": "data",
          "type": "bytes"
        }
      ],
      "name": "safeTransferFrom",
      "outputs": [],
      "stateMutability": "nonpayable",
      "type": "function"
    },
    {
      "inputs": [
        {
          "internalType": "address",
          "name": "operator",
          "type": "address"
        },
        {
          "internalType": "bool",
          "name": "approved",
          "type": "bool"
        }
      ],
      "name": "setApprovalForAll",
      "outputs": [],
      "stateMutability": "nonpayable",
      "type": "function"
    },
    {
      "inputs": [
        {
          "internalType": "bytes4",
          "name": "interfaceId",
          "type": "bytes4"
        }
      ],
      "name": "supportsInterface",
      "outputs": [
        {
          "internalType": "bool",
          "name": "",
          "type": "bool"
        }
      ],
      "stateMutability": "view",
      "type": "function"
    },
    {
      "inputs": [],
      "name": "symbol",
      "outputs": [
        {
          "internalType": "string",
          "name": "",
          "type": "string"
        }
      ],
      "stateMutability": "view",
      "type": "function"
    },
    {
      "inputs": [
        {
          "internalType": "uint256",
          "name": "tokenId",
          "type": "uint256"
        }
      ],
      "name": "tokenURI",
      "outputs": [
        {
          "internalType": "string",
          "name": "",
          "type": "string"
        }
      ],
      "stateMutability": "view",
      "type": "function"
    },
    {
      "inputs": [
        {
          "internalType": "address",
          "name": "from",
          "type": "address"
        },
        {
          "internalType": "address",
          "name": "to",
          "type": "address"
        },
        {
          "internalType": "uint256",
          "name": "tokenId",
          "type": "uint256"
        }
      ],
      "name": "transferFrom",
      "outputs": [],
      "stateMutability": "nonpayable",
      "type": "function"
    }
  ],
  "bytecode": "0x60806040523480156200001157600080fd5b506040805180820182526005815264145493919560da1b60208083019182528351808501909452600384526205258560ec1b9084015281519192916200005a916000916200008b565b508051620000709060019060208401906200008b565b5050600880546001600160a01b03191633179055506200016e565b828054620000999062000131565b90600052602060002090601f016020900481019282620000bd576000855562000108565b82601f10620000d857805160ff191683800117855562000108565b8280016001018555821562000108579182015b8281111562000108578251825591602001919060010190620000eb565b50620001169291506200011a565b5090565b5b808211156200011657600081556001016200011b565b600181811c908216806200014657607f821691505b602082108114156200016857634e487b7160e01b600052602260045260246000fd5b50919050565b6128cd806200017e6000396000f3fe608060405234801561001057600080fd5b50600436106101375760003560e01c80635b80b33c116100b8578063a22cb4651161007c578063a22cb4651461029c578063b7a9964d146102af578063b88d4fde146102c2578063c6f16b28146102d5578063c87b56dd146102f5578063e985e9c51461030857600080fd5b80635b80b33c1461022b5780636352211e1461024057806370a0823114610253578063818ead351461027457806395d89b411461029457600080fd5b80630bbb3291116100ff5780630bbb3291146101cc57806323b872dd146101df57806336c9b69c146101f257806342842e0e1461020557806349880f631461021857600080fd5b806301ffc9a71461013c57806306fdde0314610164578063081812fc14610179578063095ea7b3146101a45780630afcc7a7146101b9575b600080fd5b61014f61014a3660046121b8565b610344565b60405190151581526020015b60405180910390f35b61016c610396565b60405161015b9190612570565b61018c61018736600461225a565b610428565b6040516001600160a01b03909116815260200161015b565b6101b76101b236600461218f565b61044f565b005b6101b76101c73660046122b7565b61056a565b6101b76101da366004612305565b61066a565b6101b76101ed3660046120a1565b6107e3565b6101b7610200366004612326565b610814565b6101b76102133660046120a1565b6109f4565b6101b7610226366004612272565b610a0f565b610233610af4565b60405161015b919061250f565b61018c61024e36600461225a565b610f10565b610266610261366004612055565b610f70565b60405190815260200161015b565b61028761028236600461225a565b610ff6565b60405161015b9190612636565b61016c611140565b6101b76102aa366004612155565b61114f565b6101b76102bd3660046121f0565b61115e565b6101b76102d03660046120dc565b61126b565b6102e86102e336600461225a565b61129d565b60405161015b9190612623565b61016c61030336600461225a565b61154d565b61014f61031636600461206f565b6001600160a01b03918216600090815260056020908152604080832093909416825291909152205460ff1690565b60006001600160e01b031982166380ac58cd60e01b148061037557506001600160e01b03198216635b5e139f60e01b145b8061039057506301ffc9a760e01b6001600160e01b03198316145b92915050565b6060600080546103a5906127a9565b80601f01602080910402602001604051908101604052809291908181526020018280546103d1906127a9565b801561041e5780601f106103f35761010080835404028352916020019161041e565b820191906000526020600020905b81548152906001019060200180831161040157829003601f168201915b5050505050905090565b60006104338261165e565b506000908152600460205260409020546001600160a01b031690565b600061045a82610f10565b9050806001600160a01b0316836001600160a01b031614156104cd5760405162461bcd60e51b815260206004820152602160248201527f4552433732313a20617070726f76616c20746f2063757272656e74206f776e656044820152603960f91b60648201526084015b60405180910390fd5b336001600160a01b03821614806104e957506104e98133610316565b61055b5760405162461bcd60e51b815260206004820152603e60248201527f4552433732313a20617070726f76652063616c6c6572206973206e6f7420746f60448201527f6b656e206f776e6572206e6f7220617070726f76656420666f7220616c6c000060648201526084016104c4565b61056583836116c0565b505050565b6000838152600960205260409020600301546001600160a01b031633146105d35760405162461bcd60e51b815260206004820152601960248201527f6f6e6c79206f776e65722063616e20616464206d656d6265720000000000000060448201526064016104c4565b600083815260096020526040812060018082018054929391929091906105fa9084906126dc565b9091555050600181015461060f906002612708565b6000858152600a602090815260408220600590810193909355918301805460018101825590825290829020855161064e93919092019190860190611e8b565b5060060180546001810182556000918252602090912001555050565b6000828152600960205260409020600301546001600160a01b031633146106d35760405162461bcd60e51b815260206004820152601c60248201527f6f6e6c79206f776e65722063616e2072656d6f7665206d656d6265720000000060448201526064016104c4565b6000828152600960205260408120905b60068201548110156107dd578282600601828154811061071357634e487b7160e01b600052603260045260246000fd5b906000526020600020015414156107cb5781600601818154811061074757634e487b7160e01b600052603260045260246000fd5b906000526020600020016000905581600501818154811061077857634e487b7160e01b600052603260045260246000fd5b90600052602060002001600061078e9190611f0f565b60018260010160008282546107a39190612766565b909155505060018201546107b8906002612708565b6000858152600a60205260409020600501555b806107d5816127e4565b9150506106e3565b50505050565b6107ed338261172e565b6108095760405162461bcd60e51b81526004016104c4906125d5565b6105658383836117ac565b6000838152600a602090815260409091208481556001810184905582514292610844926007019190850190611e8b565b506000848152600a602052604081206006810183905560020180546001929061086e9084906126dc565b90915550506000848152600a602052604090206005015483116108b8576000848152600a602052604081206003018054600192906108ad90849061269b565b909155506108e09050565b6000848152600a602052604081206003018054600192906108da908490612727565b90915550505b6000848152600a6020526040902060020154601d14156107dd576000848152600a602052604090206003015460111361092a576000848152600a60205260408120600401556109d6565b6000848152600a60205260409020600301546010141561095b576000848152600a60205260408120600401556109d6565b6000848152600a6020526040902060030154600f126109d6576000848152600a602052604081206004018054600192906109969084906126dc565b90915550506000848152600a6020526040902060040154600314156109d6576109d66040518060600160405280602c815260200161286c602c9139611948565b5050506000908152600a602052604081206002810182905560030155565b6105658383836040518060200160405280600081525061126b565b6000828152600960205260409020600301546001600160a01b03163314610a785760405162461bcd60e51b815260206004820152601f60248201527f6f6e6c79206f776e65722063616e206368616e6765206f776e6572736869700060448201526064016104c4565b6000600181610a88826002612708565b6000868152600960209081526040822088815560018082018790556005909101805491820181558352918190208751939450610aca9392019190870190611e8b565b506000948552600a6020526040852060058101919091556003810192909255506002019190915550565b60606000610b0160075490565b905060008060005b83811015610b64573360096000610b218460016126dc565b81526020810191909152604001600020600301546001600160a01b03161415610b5257610b4f6001846126dc565b92505b80610b5c816127e4565b915050610b09565b5060008267ffffffffffffffff811115610b8e57634e487b7160e01b600052604160045260246000fd5b604051908082528060200260200182016040528015610bc757816020015b610bb4611f49565b815260200190600190039081610bac5790505b50905060005b84811015610f07573360096000610be58460016126dc565b81526020810191909152604001600020600301546001600160a01b03161415610ef5576000610c158260016126dc565b90506000600960008381526020019081526020016000209050806040518060e00160405290816000820154815260200160018201548152602001600282018054610c5e906127a9565b80601f0160208091040260200160405190810160405280929190818152602001828054610c8a906127a9565b8015610cd75780601f10610cac57610100808354040283529160200191610cd7565b820191906000526020600020905b815481529060010190602001808311610cba57829003601f168201915b505050918352505060038201546001600160a01b03166020820152600482018054604090920191610d07906127a9565b80601f0160208091040260200160405190810160405280929190818152602001828054610d33906127a9565b8015610d805780601f10610d5557610100808354040283529160200191610d80565b820191906000526020600020905b815481529060010190602001808311610d6357829003601f168201915b5050505050815260200160058201805480602002602001604051908101604052809291908181526020016000905b82821015610e5a578382906000526020600020018054610dcd906127a9565b80601f0160208091040260200160405190810160405280929190818152602001828054610df9906127a9565b8015610e465780601f10610e1b57610100808354040283529160200191610e46565b820191906000526020600020905b815481529060010190602001808311610e2957829003601f168201915b505050505081526020019060010190610dae565b50505050815260200160068201805480602002602001604051908101604052809291908181526020018280548015610eb157602002820191906000526020600020905b815481526020019060010190808311610e9d575b505050505081525050848681518110610eda57634e487b7160e01b600052603260045260246000fd5b6020908102919091010152610ef06001866126dc565b945050505b80610eff816127e4565b915050610bcd565b50949350505050565b6000818152600260205260408120546001600160a01b0316806103905760405162461bcd60e51b8152602060048201526018602482015277115490cdcc8c4e881a5b9d985b1a59081d1bdad95b88125160421b60448201526064016104c4565b60006001600160a01b038216610fda5760405162461bcd60e51b815260206004820152602960248201527f4552433732313a2061646472657373207a65726f206973206e6f7420612076616044820152683634b21037bbb732b960b91b60648201526084016104c4565b506001600160a01b031660009081526003602052604090205490565b61103e60405180610100016040528060008152602001600081526020016000815260200160008152602001600081526020016000815260200160008152602001606081525090565b6000600a600084815260200190815260200160002060405180610100016040529081600082015481526020016001820154815260200160028201548152602001600382015481526020016004820154815260200160058201548152602001600682015481526020016007820180546110b5906127a9565b80601f01602080910402602001604051908101604052809291908181526020018280546110e1906127a9565b801561112e5780601f106111035761010080835404028352916020019161112e565b820191906000526020600020905b81548152906001019060200180831161111157829003601f168201915b50505091909252509195945050505050565b6060600180546103a5906127a9565b61115a33838361198b565b5050565b61116c600780546001019055565b600061117760075490565b90506111833382611a5a565b836009600061119160075490565b815260200190815260200160002060020190805190602001906111b5929190611e8b565b5033600960006111c460075490565b815260200190815260200160002060030160006101000a8154816001600160a01b0302191690836001600160a01b03160217905550816009600061120760075490565b8152602001908152602001600020600401908051906020019061122b929190611e8b565b506009600061123960075490565b815260208082019290925260400160009081206006018054600181018255908252919020018390556107dd8185610a0f565b611275338361172e565b6112915760405162461bcd60e51b81526004016104c4906125d5565b6107dd84848484611b9c565b6112a5611f49565b6000600960008481526020019081526020016000206040518060e001604052908160008201548152602001600182015481526020016002820180546112e9906127a9565b80601f0160208091040260200160405190810160405280929190818152602001828054611315906127a9565b80156113625780601f1061133757610100808354040283529160200191611362565b820191906000526020600020905b81548152906001019060200180831161134557829003601f168201915b505050918352505060038201546001600160a01b03166020820152600482018054604090920191611392906127a9565b80601f01602080910402602001604051908101604052809291908181526020018280546113be906127a9565b801561140b5780601f106113e05761010080835404028352916020019161140b565b820191906000526020600020905b8154815290600101906020018083116113ee57829003601f168201915b5050505050815260200160058201805480602002602001604051908101604052809291908181526020016000905b828210156114e5578382906000526020600020018054611458906127a9565b80601f0160208091040260200160405190810160405280929190818152602001828054611484906127a9565b80156114d15780601f106114a6576101008083540402835291602001916114d1565b820191906000526020600020905b8154815290600101906020018083116114b457829003601f168201915b505050505081526020019060010190611439565b5050505081526020016006820180548060200260200160405190810160405280929190818152602001828054801561112e57602002820191906000526020600020905b8154815260200190600101908083116115285750505091909252509195945050505050565b60606115588261165e565b60008281526006602052604081208054611571906127a9565b80601f016020809104026020016040519081016040528092919081815260200182805461159d906127a9565b80156115ea5780601f106115bf576101008083540402835291602001916115ea565b820191906000526020600020905b8154815290600101906020018083116115cd57829003601f168201915b50505050509050600061160860408051602081019091526000815290565b905080516000141561161b575092915050565b81511561164d5780826040516020016116359291906124a3565b60405160208183030381529060405292505050919050565b61165684611bcf565b949350505050565b6000818152600260205260409020546001600160a01b03166116bd5760405162461bcd60e51b8152602060048201526018602482015277115490cdcc8c4e881a5b9d985b1a59081d1bdad95b88125160421b60448201526064016104c4565b50565b600081815260046020526040902080546001600160a01b0319166001600160a01b03841690811790915581906116f582610f10565b6001600160a01b03167f8c5be1e5ebec7d5bd14f71427d1e84f3dd0314c0f7b2291e5b200ac8c7c3b92560405160405180910390a45050565b60008061173a83610f10565b9050806001600160a01b0316846001600160a01b0316148061178157506001600160a01b0380821660009081526005602090815260408083209388168352929052205460ff165b806116565750836001600160a01b031661179a84610428565b6001600160a01b031614949350505050565b826001600160a01b03166117bf82610f10565b6001600160a01b0316146118235760405162461bcd60e51b815260206004820152602560248201527f4552433732313a207472616e736665722066726f6d20696e636f72726563742060448201526437bbb732b960d91b60648201526084016104c4565b6001600160a01b0382166118855760405162461bcd60e51b8152602060048201526024808201527f4552433732313a207472616e7366657220746f20746865207a65726f206164646044820152637265737360e01b60648201526084016104c4565b6118906000826116c0565b6001600160a01b03831660009081526003602052604081208054600192906118b9908490612766565b90915550506001600160a01b03821660009081526003602052604081208054600192906118e79084906126dc565b909155505060008181526002602052604080822080546001600160a01b0319166001600160a01b0386811691821790925591518493918716917fddf252ad1be2c89b69c2b068fc378daa952ba7f163c4a11628f55a4df523b3ef91a4505050565b6116bd8160405160240161195c9190612570565b60408051601f198184030181529190526020810180516001600160e01b031663104c13eb60e21b179052611c43565b816001600160a01b0316836001600160a01b031614156119ed5760405162461bcd60e51b815260206004820152601960248201527f4552433732313a20617070726f766520746f2063616c6c65720000000000000060448201526064016104c4565b6001600160a01b03838116600081815260056020908152604080832094871680845294825291829020805460ff191686151590811790915591519182527f17307eab39ab6107e8899845ad3d59bd9653f200f220920489ca2b5937696c31910160405180910390a3505050565b6001600160a01b038216611ab05760405162461bcd60e51b815260206004820181905260248201527f4552433732313a206d696e7420746f20746865207a65726f206164647265737360448201526064016104c4565b6000818152600260205260409020546001600160a01b031615611b155760405162461bcd60e51b815260206004820152601c60248201527f4552433732313a20746f6b656e20616c7265616479206d696e7465640000000060448201526064016104c4565b6001600160a01b0382166000908152600360205260408120805460019290611b3e9084906126dc565b909155505060008181526002602052604080822080546001600160a01b0319166001600160a01b03861690811790915590518392907fddf252ad1be2c89b69c2b068fc378daa952ba7f163c4a11628f55a4df523b3ef908290a45050565b611ba78484846117ac565b611bb384848484611c64565b6107dd5760405162461bcd60e51b81526004016104c490612583565b6060611bda8261165e565b6000611bf160408051602081019091526000815290565b90506000815111611c115760405180602001604052806000815250611c3c565b80611c1b84611d71565b604051602001611c2c9291906124a3565b6040516020818303038152906040525b9392505050565b80516a636f6e736f6c652e6c6f67602083016000808483855afa5050505050565b60006001600160a01b0384163b15611d6657604051630a85bd0160e11b81526001600160a01b0385169063150b7a0290611ca89033908990889088906004016124d2565b602060405180830381600087803b158015611cc257600080fd5b505af1925050508015611cf2575060408051601f3d908101601f19168201909252611cef918101906121d4565b60015b611d4c573d808015611d20576040519150601f19603f3d011682016040523d82523d6000602084013e611d25565b606091505b508051611d445760405162461bcd60e51b81526004016104c490612583565b805181602001fd5b6001600160e01b031916630a85bd0160e11b149050611656565b506001949350505050565b606081611d955750506040805180820190915260018152600360fc1b602082015290565b8160005b8115611dbf5780611da9816127e4565b9150611db89050600a836126f4565b9150611d99565b60008167ffffffffffffffff811115611de857634e487b7160e01b600052604160045260246000fd5b6040519080825280601f01601f191660200182016040528015611e12576020820181803683370190505b5090505b841561165657611e27600183612766565b9150611e34600a866127ff565b611e3f9060306126dc565b60f81b818381518110611e6257634e487b7160e01b600052603260045260246000fd5b60200101906001600160f81b031916908160001a905350611e84600a866126f4565b9450611e16565b828054611e97906127a9565b90600052602060002090601f016020900481019282611eb95760008555611eff565b82601f10611ed257805160ff1916838001178555611eff565b82800160010185558215611eff579182015b82811115611eff578251825591602001919060010190611ee4565b50611f0b929150611f8f565b5090565b508054611f1b906127a9565b6000825580601f10611f2b575050565b601f0160209004906000526020600020908101906116bd9190611f8f565b6040518060e0016040528060008152602001600081526020016060815260200160006001600160a01b031681526020016060815260200160608152602001606081525090565b5b80821115611f0b5760008155600101611f90565b600067ffffffffffffffff80841115611fbf57611fbf61283f565b604051601f8501601f19908116603f01168101908282118183101715611fe757611fe761283f565b8160405280935085815286868601111561200057600080fd5b858560208301376000602087830101525050509392505050565b80356001600160a01b038116811461203157600080fd5b919050565b600082601f830112612046578081fd5b611c3c83833560208501611fa4565b600060208284031215612066578081fd5b611c3c8261201a565b60008060408385031215612081578081fd5b61208a8361201a565b91506120986020840161201a565b90509250929050565b6000806000606084860312156120b5578081fd5b6120be8461201a565b92506120cc6020850161201a565b9150604084013590509250925092565b600080600080608085870312156120f1578081fd5b6120fa8561201a565b93506121086020860161201a565b925060408501359150606085013567ffffffffffffffff81111561212a578182fd5b8501601f8101871361213a578182fd5b61214987823560208401611fa4565b91505092959194509250565b60008060408385031215612167578182fd5b6121708361201a565b915060208301358015158114612184578182fd5b809150509250929050565b600080604083850312156121a1578182fd5b6121aa8361201a565b946020939093013593505050565b6000602082840312156121c9578081fd5b8135611c3c81612855565b6000602082840312156121e5578081fd5b8151611c3c81612855565b600080600060608486031215612204578283fd5b833567ffffffffffffffff8082111561221b578485fd5b61222787838801612036565b9450602086013593506040860135915080821115612243578283fd5b5061225086828701612036565b9150509250925092565b60006020828403121561226b578081fd5b5035919050565b60008060408385031215612284578182fd5b82359150602083013567ffffffffffffffff8111156122a1578182fd5b6122ad85828601612036565b9150509250929050565b6000806000606084860312156122cb578283fd5b83359250602084013567ffffffffffffffff8111156122e8578283fd5b6122f486828701612036565b925050604084013590509250925092565b60008060408385031215612317578182fd5b50508035926020909101359150565b60008060006060848603121561233a578081fd5b8335925060208401359150604084013567ffffffffffffffff81111561235e578182fd5b61225086828701612036565b6000815180845260208085019450808401835b838110156123995781518752958201959082019060010161237d565b509495945050505050565b600081518084526123bc81602086016020860161277d565b601f01601f19169290920160200192915050565b80518252600060208083015181850152604083015160e060408601526123f960e08601826123a4565b905060018060a01b0360608501511660608601526080840151858203608087015261242482826123a4565b91505060a084015185820360a08701528181518084528484019150848160051b8501018584019350865b8281101561247c57601f1986830301845261246a8286516123a4565b9487019493870193915060010161244e565b5060c0880151955088810360c08a0152612496818761236a565b9998505050505050505050565b600083516124b581846020880161277d565b8351908301906124c981836020880161277d565b01949350505050565b6001600160a01b0385811682528416602082015260408101839052608060608201819052600090612505908301846123a4565b9695505050505050565b6000602080830181845280855180835260408601915060408160051b8701019250838701855b8281101561256357603f198886030184526125518583516123d0565b94509285019290850190600101612535565b5092979650505050505050565b602081526000611c3c60208301846123a4565b60208082526032908201527f4552433732313a207472616e7366657220746f206e6f6e20455243373231526560408201527131b2b4bb32b91034b6b83632b6b2b73a32b960711b606082015260800190565b6020808252602e908201527f4552433732313a2063616c6c6572206973206e6f7420746f6b656e206f776e6560408201526d1c881b9bdc88185c1c1c9bdd995960921b606082015260800190565b602081526000611c3c60208301846123d0565b6020815281516020820152602082015160408201526040820151606082015260608201516080820152608082015160a082015260a082015160c082015260c082015160e0820152600060e08301516101008081850152506116566101208401826123a4565b600080821280156001600160ff1b03849003851316156126bd576126bd612813565b600160ff1b83900384128116156126d6576126d6612813565b50500190565b600082198211156126ef576126ef612813565b500190565b60008261270357612703612829565b500490565b600081600019048311821515161561272257612722612813565b500290565b60008083128015600160ff1b85018412161561274557612745612813565b6001600160ff1b038401831381161561276057612760612813565b50500390565b60008282101561277857612778612813565b500390565b60005b83811015612798578181015183820152602001612780565b838111156107dd5750506000910152565b600181811c908216806127bd57607f821691505b602082108114156127de57634e487b7160e01b600052602260045260246000fd5b50919050565b60006000198214156127f8576127f8612813565b5060010190565b60008261280e5761280e612829565b500690565b634e487b7160e01b600052601160045260246000fd5b634e487b7160e01b600052601260045260246000fd5b634e487b7160e01b600052604160045260246000fd5b6001600160e01b0319811681146116bd57600080fdfe796f757220616374697669747920697320737573706963696f757320616e6420756e64657220726576696577a2646970667358221220082ba7fb86e3ed5da6a92af64479cce815bb2dec42c7ea710c046934158c17a364736f6c63430008040033",
  "linkReferences": {},
  "deployedLinkReferences": {}
}