{
  "_format": "hh-sol-artifact-1",
  "contractName": "WMAP_COMMUNITY",
  "sourceName": "contracts/wmap_community.sol",
  "abi": [
    {
      "inputs": [],
      "stateMutability": "nonpayable",
      "type": "constructor"
    },
    {
      "anonymous": false,
      "inputs": [
        {
          "indexed": true,
          "internalType": "address",
          "name": "owner",
          "type": "address"
        },
        {
          "indexed": true,
          "internalType": "address",
          "name": "approved",
          "type": "address"
        },
        {
          "indexed": true,
          "internalType": "uint256",
          "name": "tokenId",
          "type": "uint256"
        }
      ],
      "name": "Approval",
      "type": "event"
    },
    {
      "anonymous": false,
      "inputs": [
        {
          "indexed": true,
          "internalType": "address",
          "name": "owner",
          "type": "address"
        },
        {
          "indexed": true,
          "internalType": "address",
          "name": "operator",
          "type": "address"
        },
        {
          "indexed": false,
          "internalType": "bool",
          "name": "approved",
          "type": "bool"
        }
      ],
      "name": "ApprovalForAll",
      "type": "event"
    },
    {
      "anonymous": false,
      "inputs": [
        {
          "indexed": true,
          "internalType": "address",
          "name": "from",
          "type": "address"
        },
        {
          "indexed": true,
          "internalType": "address",
          "name": "to",
          "type": "address"
        },
        {
          "indexed": true,
          "internalType": "uint256",
          "name": "tokenId",
          "type": "uint256"
        }
      ],
      "name": "Transfer",
      "type": "event"
    },
    {
      "inputs": [
        {
          "internalType": "address",
          "name": "to",
          "type": "address"
        },
        {
          "internalType": "uint256",
          "name": "tokenId",
          "type": "uint256"
        }
      ],
      "name": "approve",
      "outputs": [],
      "stateMutability": "nonpayable",
      "type": "function"
    },
    {
      "inputs": [
        {
          "internalType": "address",
          "name": "owner",
          "type": "address"
        }
      ],
      "name": "balanceOf",
      "outputs": [
        {
          "internalType": "uint256",
          "name": "",
          "type": "uint256"
        }
      ],
      "stateMutability": "view",
      "type": "function"
    },
    {
      "inputs": [],
      "name": "fetchHouse",
      "outputs": [
        {
          "components": [
            {
              "internalType": "uint256",
              "name": "tokenId",
              "type": "uint256"
            },
            {
              "internalType": "uint256",
              "name": "noOfPeople",
              "type": "uint256"
            },
            {
              "internalType": "string",
              "name": "OwnerName",
              "type": "string"
            },
            {
              "internalType": "uint256",
              "name": "OwnerVerificationDetails",
              "type": "uint256"
            },
            {
              "internalType": "address",
              "name": "OwnerWalletAddress",
              "type": "address"
            },
            {
              "internalType": "string",
              "name": "houseAddress",
              "type": "string"
            },
            {
              "internalType": "uint256",
              "name": "garbageWeightLimit",
              "type": "uint256"
            },
            {
              "internalType": "string[]",
              "name": "memberName",
              "type": "string[]"
            },
            {
              "internalType": "uint256[]",
              "name": "verificationDetails",
              "type": "uint256[]"
            }
          ],
          "internalType": "struct WMAP_COMMUNITY.House[]",
          "name": "",
          "type": "tuple[]"
        }
      ],
      "stateMutability": "view",
      "type": "function"
    },
    {
      "inputs": [
        {
          "internalType": "uint256",
          "name": "tokenId",
          "type": "uint256"
        }
      ],
      "name": "getApproved",
      "outputs": [
        {
          "internalType": "address",
          "name": "",
          "type": "address"
        }
      ],
      "stateMutability": "view",
      "type": "function"
    },
    {
      "inputs": [
        {
          "internalType": "uint256",
          "name": "tokenId",
          "type": "uint256"
        }
      ],
      "name": "getHomeDetails",
      "outputs": [
        {
          "components": [
            {
              "internalType": "uint256",
              "name": "tokenId",
              "type": "uint256"
            },
            {
              "internalType": "uint256",
              "name": "noOfPeople",
              "type": "uint256"
            },
            {
              "internalType": "string",
              "name": "OwnerName",
              "type": "string"
            },
            {
              "internalType": "uint256",
              "name": "OwnerVerificationDetails",
              "type": "uint256"
            },
            {
              "internalType": "address",
              "name": "OwnerWalletAddress",
              "type": "address"
            },
            {
              "internalType": "string",
              "name": "houseAddress",
              "type": "string"
            },
            {
              "internalType": "uint256",
              "name": "garbageWeightLimit",
              "type": "uint256"
            },
            {
              "internalType": "string[]",
              "name": "memberName",
              "type": "string[]"
            },
            {
              "internalType": "uint256[]",
              "name": "verificationDetails",
              "type": "uint256[]"
            }
          ],
          "internalType": "struct WMAP_COMMUNITY.House",
          "name": "",
          "type": "tuple"
        }
      ],
      "stateMutability": "view",
      "type": "function"
    },
    {
      "inputs": [
        {
          "internalType": "address",
          "name": "owner",
          "type": "address"
        },
        {
          "internalType": "address",
          "name": "operator",
          "type": "address"
        }
      ],
      "name": "isApprovedForAll",
      "outputs": [
        {
          "internalType": "bool",
          "name": "",
          "type": "bool"
        }
      ],
      "stateMutability": "view",
      "type": "function"
    },
    {
      "inputs": [],
      "name": "name",
      "outputs": [
        {
          "internalType": "string",
          "name": "",
          "type": "string"
        }
      ],
      "stateMutability": "view",
      "type": "function"
    },
    {
      "inputs": [
        {
          "internalType": "uint256",
          "name": "tokenId",
          "type": "uint256"
        }
      ],
      "name": "ownerOf",
      "outputs": [
        {
          "internalType": "address",
          "name": "",
          "type": "address"
        }
      ],
      "stateMutability": "view",
      "type": "function"
    },
    {
      "inputs": [
        {
          "internalType": "string",
          "name": "OwnerName",
          "type": "string"
        },
        {
          "internalType": "uint256",
          "name": "verificationDetails",
          "type": "uint256"
        },
        {
          "internalType": "string",
          "name": "houseAddress",
          "type": "string"
        }
      ],
      "name": "registerHouse",
      "outputs": [],
      "stateMutability": "nonpayable",
      "type": "function"
    },
    {
      "inputs": [
        {
          "internalType": "uint256",
          "name": "tokenId",
          "type": "uint256"
        },
        {
          "internalType": "string",
          "name": "memberName",
          "type": "string"
        },
        {
          "internalType": "uint256",
          "name": "verificationDetails",
          "type": "uint256"
        }
      ],
      "name": "registerNewMember",
      "outputs": [],
      "stateMutability": "nonpayable",
      "type": "function"
    },
    {
      "inputs": [
        {
          "internalType": "uint256",
          "name": "tokenId",
          "type": "uint256"
        },
        {
          "internalType": "string",
          "name": "OwnerName",
          "type": "string"
        },
        {
          "internalType": "uint256",
          "name": "verificationDetails",
          "type": "uint256"
        }
      ],
      "name": "registerOwner",
      "outputs": [],
      "stateMutability": "nonpayable",
      "type": "function"
    },
    {
      "inputs": [
        {
          "internalType": "uint256",
          "name": "tokenId",
          "type": "uint256"
        },
        {
          "internalType": "uint256",
          "name": "verificationDetails",
          "type": "uint256"
        }
      ],
      "name": "removeExistingMember",
      "outputs": [],
      "stateMutability": "nonpayable",
      "type": "function"
    },
    {
      "inputs": [
        {
          "internalType": "address",
          "name": "from",
          "type": "address"
        },
        {
          "internalType": "address",
          "name": "to",
          "type": "address"
        },
        {
          "internalType": "uint256",
          "name": "tokenId",
          "type": "uint256"
        }
      ],
      "name": "safeTransferFrom",
      "outputs": [],
      "stateMutability": "nonpayable",
      "type": "function"
    },
    {
      "inputs": [
        {
          "internalType": "address",
          "name": "from",
          "type": "address"
        },
        {
          "internalType": "address",
          "name": "to",
          "type": "address"
        },
        {
          "internalType": "uint256",
          "name": "tokenId",
          "type": "uint256"
        },
        {
          "internalType": "bytes",
          "name": "data",
          "type": "bytes"
        }
      ],
      "name": "safeTransferFrom",
      "outputs": [],
      "stateMutability": "nonpayable",
      "type": "function"
    },
    {
      "inputs": [
        {
          "internalType": "address",
          "name": "operator",
          "type": "address"
        },
        {
          "internalType": "bool",
          "name": "approved",
          "type": "bool"
        }
      ],
      "name": "setApprovalForAll",
      "outputs": [],
      "stateMutability": "nonpayable",
      "type": "function"
    },
    {
      "inputs": [
        {
          "internalType": "bytes4",
          "name": "interfaceId",
          "type": "bytes4"
        }
      ],
      "name": "supportsInterface",
      "outputs": [
        {
          "internalType": "bool",
          "name": "",
          "type": "bool"
        }
      ],
      "stateMutability": "view",
      "type": "function"
    },
    {
      "inputs": [],
      "name": "symbol",
      "outputs": [
        {
          "internalType": "string",
          "name": "",
          "type": "string"
        }
      ],
      "stateMutability": "view",
      "type": "function"
    },
    {
      "inputs": [
        {
          "internalType": "uint256",
          "name": "tokenId",
          "type": "uint256"
        }
      ],
      "name": "tokenURI",
      "outputs": [
        {
          "internalType": "string",
          "name": "",
          "type": "string"
        }
      ],
      "stateMutability": "view",
      "type": "function"
    },
    {
      "inputs": [
        {
          "internalType": "address",
          "name": "from",
          "type": "address"
        },
        {
          "internalType": "address",
          "name": "to",
          "type": "address"
        },
        {
          "internalType": "uint256",
          "name": "tokenId",
          "type": "uint256"
        }
      ],
      "name": "transferFrom",
      "outputs": [],
      "stateMutability": "nonpayable",
      "type": "function"
    }
  ],
  "bytecode": "0x60806040523480156200001157600080fd5b506040805180820182526005815264145493919560da1b60208083019182528351808501909452600384526205258560ec1b9084015281519192916200005a916000916200008b565b508051620000709060019060208401906200008b565b5050600980546001600160a01b03191633179055506200016e565b828054620000999062000131565b90600052602060002090601f016020900481019282620000bd576000855562000108565b82601f10620000d857805160ff191683800117855562000108565b8280016001018555821562000108579182015b8281111562000108578251825591602001919060010190620000eb565b50620001169291506200011a565b5090565b5b808211156200011657600081556001016200011b565b600181811c908216806200014657607f821691505b602082108114156200016857634e487b7160e01b600052602260045260246000fd5b50919050565b612469806200017e6000396000f3fe608060405234801561001057600080fd5b50600436106101215760003560e01c80636352211e116100ad578063b7a9964d11610071578063b7a9964d14610266578063b88d4fde14610279578063c6f16b281461028c578063c87b56dd146102ac578063e985e9c5146102bf57600080fd5b80636352211e1461020457806370a08231146102175780637405081f1461023857806395d89b411461024b578063a22cb4651461025357600080fd5b80630afcc7a7116100f45780630afcc7a7146101a35780630bbb3291146101b657806323b872dd146101c957806342842e0e146101dc5780635b80b33c146101ef57600080fd5b806301ffc9a71461012657806306fdde031461014e578063081812fc14610163578063095ea7b31461018e575b600080fd5b610139610134366004611ec5565b6102fb565b60405190151581526020015b60405180910390f35b61015661034d565b604051610145919061221d565b610176610171366004611f67565b6103df565b6040516001600160a01b039091168152602001610145565b6101a161019c366004611e9c565b610406565b005b6101a16101b1366004611f7f565b610521565b6101a16101c4366004611fcd565b610620565b6101a16101d7366004611dae565b610799565b6101a16101ea366004611dae565b6107ca565b6101f76107e5565b60405161014591906121bc565b610176610212366004611f67565b610c16565b61022a610225366004611d62565b610c76565b604051908152602001610145565b6101a1610246366004611f7f565b610cfc565b610156610e06565b6101a1610261366004611e62565b610e15565b6101a1610274366004611efd565b610e24565b6101a1610287366004611de9565b610fb7565b61029f61029a366004611f67565b610fe9565b60405161014591906122d0565b6101566102ba366004611f67565b6112af565b6101396102cd366004611d7c565b6001600160a01b03918216600090815260056020908152604080832093909416825291909152205460ff1690565b60006001600160e01b031982166380ac58cd60e01b148061032c57506001600160e01b03198216635b5e139f60e01b145b8061034757506301ffc9a760e01b6001600160e01b03198316145b92915050565b60606000805461035c90612371565b80601f016020809104026020016040519081016040528092919081815260200182805461038890612371565b80156103d55780601f106103aa576101008083540402835291602001916103d5565b820191906000526020600020905b8154815290600101906020018083116103b857829003601f168201915b5050505050905090565b60006103ea826113c0565b506000908152600460205260409020546001600160a01b031690565b600061041182610c16565b9050806001600160a01b0316836001600160a01b031614156104845760405162461bcd60e51b815260206004820152602160248201527f4552433732313a20617070726f76616c20746f2063757272656e74206f776e656044820152603960f91b60648201526084015b60405180910390fd5b336001600160a01b03821614806104a057506104a081336102cd565b6105125760405162461bcd60e51b815260206004820152603e60248201527f4552433732313a20617070726f76652063616c6c6572206973206e6f7420746f60448201527f6b656e206f776e6572206e6f7220617070726f76656420666f7220616c6c0000606482015260840161047b565b61051c8383611422565b505050565b6000838152600a60205260409020600401546001600160a01b0316331461058a5760405162461bcd60e51b815260206004820152601960248201527f6f6e6c79206f776e65722063616e20616464206d656d62657200000000000000604482015260640161047b565b6000838152600a6020526040812060018082018054929391929091906105b19084906122e3565b909155505060018101546105c690600261230f565b6000858152600a6020908152604082206006019290925560078301805460018101825590825290829020855161060493919092019190860190611b89565b5060080180546001810182556000918252602090912001555050565b6000828152600a60205260409020600401546001600160a01b031633146106895760405162461bcd60e51b815260206004820152601c60248201527f6f6e6c79206f776e65722063616e2072656d6f7665206d656d62657200000000604482015260640161047b565b6000828152600a60205260408120905b600882015481101561079357828260080182815481106106c957634e487b7160e01b600052603260045260246000fd5b90600052602060002001541415610781578160080181815481106106fd57634e487b7160e01b600052603260045260246000fd5b906000526020600020016000905581600701818154811061072e57634e487b7160e01b600052603260045260246000fd5b9060005260206000200160006107449190611c0d565b6001826001016000828254610759919061232e565b9091555050600182015461076e90600261230f565b6000858152600a60205260409020600601555b8061078b816123ac565b915050610699565b50505050565b6107a33382611490565b6107bf5760405162461bcd60e51b815260040161047b90612282565b61051c83838361150e565b61051c83838360405180602001604052806000815250610fb7565b606060006107f260075490565b905060008060005b838110156108555733600a60006108128460016122e3565b81526020810191909152604001600020600401546001600160a01b03161415610843576108406001846122e3565b92505b8061084d816123ac565b9150506107fa565b5060008267ffffffffffffffff81111561087f57634e487b7160e01b600052604160045260246000fd5b6040519080825280602002602001820160405280156108b857816020015b6108a5611c47565b81526020019060019003908161089d5790505b50905060005b84811015610c0d5733600a60006108d68460016122e3565b81526020810191909152604001600020600401546001600160a01b03161415610bfb5760006109068260016122e3565b90506000600a600083815260200190815260200160002090508060405180610120016040529081600082015481526020016001820154815260200160028201805461095090612371565b80601f016020809104026020016040519081016040528092919081815260200182805461097c90612371565b80156109c95780601f1061099e576101008083540402835291602001916109c9565b820191906000526020600020905b8154815290600101906020018083116109ac57829003601f168201915b50505091835250506003820154602082015260048201546001600160a01b03166040820152600582018054606090920191610a0390612371565b80601f0160208091040260200160405190810160405280929190818152602001828054610a2f90612371565b8015610a7c5780601f10610a5157610100808354040283529160200191610a7c565b820191906000526020600020905b815481529060010190602001808311610a5f57829003601f168201915b505050505081526020016006820154815260200160078201805480602002602001604051908101604052809291908181526020016000905b82821015610b60578382906000526020600020018054610ad390612371565b80601f0160208091040260200160405190810160405280929190818152602001828054610aff90612371565b8015610b4c5780601f10610b2157610100808354040283529160200191610b4c565b820191906000526020600020905b815481529060010190602001808311610b2f57829003601f168201915b505050505081526020019060010190610ab4565b50505050815260200160088201805480602002602001604051908101604052809291908181526020018280548015610bb757602002820191906000526020600020905b815481526020019060010190808311610ba3575b505050505081525050848681518110610be057634e487b7160e01b600052603260045260246000fd5b6020908102919091010152610bf66001866122e3565b945050505b80610c05816123ac565b9150506108be565b50949350505050565b6000818152600260205260408120546001600160a01b0316806103475760405162461bcd60e51b8152602060048201526018602482015277115490cdcc8c4e881a5b9d985b1a59081d1bdad95b88125160421b604482015260640161047b565b60006001600160a01b038216610ce05760405162461bcd60e51b815260206004820152602960248201527f4552433732313a2061646472657373207a65726f206973206e6f7420612076616044820152683634b21037bbb732b960b91b606482015260840161047b565b506001600160a01b031660009081526003602052604090205490565b6000838152600a60205260409020600401546001600160a01b03163314610d655760405162461bcd60e51b815260206004820152601f60248201527f6f6e6c79206f776e65722063616e206368616e6765206f776e65727368697000604482015260640161047b565b6000838152600a60209081526040822085815560018082018190556007909101805491820181558352918190208451610da5939190910191850190611b89565b506000838152600a60209081526040822060088101805460018101825590845282842001849055918590526002600683018190558451610dec939190910191850190611b89565b506000928352600a60205260409092206003019190915550565b60606001805461035c90612371565b610e203383836116aa565b5050565b6000610e2f60075490565b90506000805b82811015610e865733600a6000610e4d8460016122e3565b81526020810191909152604001600020600401546001600160a01b03161415610e74573391505b80610e7e816123ac565b915050610e35565b506001600160a01b038116331415610ed65760405162461bcd60e51b815260206004820152601360248201527213dddb995c88105b1c9958591e48115e1a5cdd606a1b604482015260640161047b565b610ee4600780546001019055565b6000610eef60075490565b9050610efb3382611779565b85600a6000610f0960075490565b81526020019081526020016000206002019080519060200190610f2d929190611b89565b5033600a6000610f3c60075490565b815260200190815260200160002060040160006101000a8154816001600160a01b0302191690836001600160a01b0316021790555083600a6000610f7f60075490565b81526020019081526020016000206005019080519060200190610fa3929190611b89565b50610faf818787610cfc565b505050505050565b610fc13383611490565b610fdd5760405162461bcd60e51b815260040161047b90612282565b610793848484846118bb565b610ff1611c47565b6000600a600084815260200190815260200160002060405180610120016040529081600082015481526020016001820154815260200160028201805461103690612371565b80601f016020809104026020016040519081016040528092919081815260200182805461106290612371565b80156110af5780601f10611084576101008083540402835291602001916110af565b820191906000526020600020905b81548152906001019060200180831161109257829003601f168201915b50505091835250506003820154602082015260048201546001600160a01b031660408201526005820180546060909201916110e990612371565b80601f016020809104026020016040519081016040528092919081815260200182805461111590612371565b80156111625780601f1061113757610100808354040283529160200191611162565b820191906000526020600020905b81548152906001019060200180831161114557829003601f168201915b505050505081526020016006820154815260200160078201805480602002602001604051908101604052809291908181526020016000905b828210156112465783829060005260206000200180546111b990612371565b80601f01602080910402602001604051908101604052809291908181526020018280546111e590612371565b80156112325780601f1061120757610100808354040283529160200191611232565b820191906000526020600020905b81548152906001019060200180831161121557829003601f168201915b50505050508152602001906001019061119a565b5050505081526020016008820180548060200260200160405190810160405280929190818152602001828054801561129d57602002820191906000526020600020905b815481526020019060010190808311611289575b50505091909252509195945050505050565b60606112ba826113c0565b600082815260066020526040812080546112d390612371565b80601f01602080910402602001604051908101604052809291908181526020018280546112ff90612371565b801561134c5780601f106113215761010080835404028352916020019161134c565b820191906000526020600020905b81548152906001019060200180831161132f57829003601f168201915b50505050509050600061136a60408051602081019091526000815290565b905080516000141561137d575092915050565b8151156113af57808260405160200161139792919061215a565b60405160208183030381529060405292505050919050565b6113b8846118ee565b949350505050565b6000818152600260205260409020546001600160a01b031661141f5760405162461bcd60e51b8152602060048201526018602482015277115490cdcc8c4e881a5b9d985b1a59081d1bdad95b88125160421b604482015260640161047b565b50565b600081815260046020526040902080546001600160a01b0319166001600160a01b038416908117909155819061145782610c16565b6001600160a01b03167f8c5be1e5ebec7d5bd14f71427d1e84f3dd0314c0f7b2291e5b200ac8c7c3b92560405160405180910390a45050565b60008061149c83610c16565b9050806001600160a01b0316846001600160a01b031614806114e357506001600160a01b0380821660009081526005602090815260408083209388168352929052205460ff165b806113b85750836001600160a01b03166114fc846103df565b6001600160a01b031614949350505050565b826001600160a01b031661152182610c16565b6001600160a01b0316146115855760405162461bcd60e51b815260206004820152602560248201527f4552433732313a207472616e736665722066726f6d20696e636f72726563742060448201526437bbb732b960d91b606482015260840161047b565b6001600160a01b0382166115e75760405162461bcd60e51b8152602060048201526024808201527f4552433732313a207472616e7366657220746f20746865207a65726f206164646044820152637265737360e01b606482015260840161047b565b6115f2600082611422565b6001600160a01b038316600090815260036020526040812080546001929061161b90849061232e565b90915550506001600160a01b03821660009081526003602052604081208054600192906116499084906122e3565b909155505060008181526002602052604080822080546001600160a01b0319166001600160a01b0386811691821790925591518493918716917fddf252ad1be2c89b69c2b068fc378daa952ba7f163c4a11628f55a4df523b3ef91a4505050565b816001600160a01b0316836001600160a01b0316141561170c5760405162461bcd60e51b815260206004820152601960248201527f4552433732313a20617070726f766520746f2063616c6c657200000000000000604482015260640161047b565b6001600160a01b03838116600081815260056020908152604080832094871680845294825291829020805460ff191686151590811790915591519182527f17307eab39ab6107e8899845ad3d59bd9653f200f220920489ca2b5937696c31910160405180910390a3505050565b6001600160a01b0382166117cf5760405162461bcd60e51b815260206004820181905260248201527f4552433732313a206d696e7420746f20746865207a65726f2061646472657373604482015260640161047b565b6000818152600260205260409020546001600160a01b0316156118345760405162461bcd60e51b815260206004820152601c60248201527f4552433732313a20746f6b656e20616c7265616479206d696e74656400000000604482015260640161047b565b6001600160a01b038216600090815260036020526040812080546001929061185d9084906122e3565b909155505060008181526002602052604080822080546001600160a01b0319166001600160a01b03861690811790915590518392907fddf252ad1be2c89b69c2b068fc378daa952ba7f163c4a11628f55a4df523b3ef908290a45050565b6118c684848461150e565b6118d284848484611962565b6107935760405162461bcd60e51b815260040161047b90612230565b60606118f9826113c0565b600061191060408051602081019091526000815290565b90506000815111611930576040518060200160405280600081525061195b565b8061193a84611a6f565b60405160200161194b92919061215a565b6040516020818303038152906040525b9392505050565b60006001600160a01b0384163b15611a6457604051630a85bd0160e11b81526001600160a01b0385169063150b7a02906119a6903390899088908890600401612189565b602060405180830381600087803b1580156119c057600080fd5b505af19250505080156119f0575060408051601f3d908101601f191682019092526119ed91810190611ee1565b60015b611a4a573d808015611a1e576040519150601f19603f3d011682016040523d82523d6000602084013e611a23565b606091505b508051611a425760405162461bcd60e51b815260040161047b90612230565b805181602001fd5b6001600160e01b031916630a85bd0160e11b1490506113b8565b506001949350505050565b606081611a935750506040805180820190915260018152600360fc1b602082015290565b8160005b8115611abd5780611aa7816123ac565b9150611ab69050600a836122fb565b9150611a97565b60008167ffffffffffffffff811115611ae657634e487b7160e01b600052604160045260246000fd5b6040519080825280601f01601f191660200182016040528015611b10576020820181803683370190505b5090505b84156113b857611b2560018361232e565b9150611b32600a866123c7565b611b3d9060306122e3565b60f81b818381518110611b6057634e487b7160e01b600052603260045260246000fd5b60200101906001600160f81b031916908160001a905350611b82600a866122fb565b9450611b14565b828054611b9590612371565b90600052602060002090601f016020900481019282611bb75760008555611bfd565b82601f10611bd057805160ff1916838001178555611bfd565b82800160010185558215611bfd579182015b82811115611bfd578251825591602001919060010190611be2565b50611c09929150611c9c565b5090565b508054611c1990612371565b6000825580601f10611c29575050565b601f01602090049060005260206000209081019061141f9190611c9c565b6040518061012001604052806000815260200160008152602001606081526020016000815260200160006001600160a01b03168152602001606081526020016000815260200160608152602001606081525090565b5b80821115611c095760008155600101611c9d565b600067ffffffffffffffff80841115611ccc57611ccc612407565b604051601f8501601f19908116603f01168101908282118183101715611cf457611cf4612407565b81604052809350858152868686011115611d0d57600080fd5b858560208301376000602087830101525050509392505050565b80356001600160a01b0381168114611d3e57600080fd5b919050565b600082601f830112611d53578081fd5b61195b83833560208501611cb1565b600060208284031215611d73578081fd5b61195b82611d27565b60008060408385031215611d8e578081fd5b611d9783611d27565b9150611da560208401611d27565b90509250929050565b600080600060608486031215611dc2578081fd5b611dcb84611d27565b9250611dd960208501611d27565b9150604084013590509250925092565b60008060008060808587031215611dfe578081fd5b611e0785611d27565b9350611e1560208601611d27565b925060408501359150606085013567ffffffffffffffff811115611e37578182fd5b8501601f81018713611e47578182fd5b611e5687823560208401611cb1565b91505092959194509250565b60008060408385031215611e74578182fd5b611e7d83611d27565b915060208301358015158114611e91578182fd5b809150509250929050565b60008060408385031215611eae578182fd5b611eb783611d27565b946020939093013593505050565b600060208284031215611ed6578081fd5b813561195b8161241d565b600060208284031215611ef2578081fd5b815161195b8161241d565b600080600060608486031215611f11578283fd5b833567ffffffffffffffff80821115611f28578485fd5b611f3487838801611d43565b9450602086013593506040860135915080821115611f50578283fd5b50611f5d86828701611d43565b9150509250925092565b600060208284031215611f78578081fd5b5035919050565b600080600060608486031215611f93578283fd5b83359250602084013567ffffffffffffffff811115611fb0578283fd5b611fbc86828701611d43565b925050604084013590509250925092565b60008060408385031215611fdf578182fd5b50508035926020909101359150565b600081518084526020808501808196508360051b81019150828601855b8581101561203557828403895261202384835161207c565b9885019893509084019060010161200b565b5091979650505050505050565b6000815180845260208085019450808401835b8381101561207157815187529582019590820190600101612055565b509495945050505050565b60008151808452612094816020860160208601612345565b601f01601f19169290920160200192915050565b6000610120825184526020830151602085015260408301518160408601526120d28286018261207c565b9150506060830151606085015260808301516120f960808601826001600160a01b03169052565b5060a083015184820360a0860152612111828261207c565b91505060c083015160c085015260e083015184820360e08601526121358282611fee565b91505061010080840151858303828701526121508382612042565b9695505050505050565b6000835161216c818460208801612345565b835190830190612180818360208801612345565b01949350505050565b6001600160a01b03858116825284166020820152604081018390526080606082018190526000906121509083018461207c565b6000602080830181845280855180835260408601915060408160051b8701019250838701855b8281101561221057603f198886030184526121fe8583516120a8565b945092850192908501906001016121e2565b5092979650505050505050565b60208152600061195b602083018461207c565b60208082526032908201527f4552433732313a207472616e7366657220746f206e6f6e20455243373231526560408201527131b2b4bb32b91034b6b83632b6b2b73a32b960711b606082015260800190565b6020808252602e908201527f4552433732313a2063616c6c6572206973206e6f7420746f6b656e206f776e6560408201526d1c881b9bdc88185c1c1c9bdd995960921b606082015260800190565b60208152600061195b60208301846120a8565b600082198211156122f6576122f66123db565b500190565b60008261230a5761230a6123f1565b500490565b6000816000190483118215151615612329576123296123db565b500290565b600082821015612340576123406123db565b500390565b60005b83811015612360578181015183820152602001612348565b838111156107935750506000910152565b600181811c9082168061238557607f821691505b602082108114156123a657634e487b7160e01b600052602260045260246000fd5b50919050565b60006000198214156123c0576123c06123db565b5060010190565b6000826123d6576123d66123f1565b500690565b634e487b7160e01b600052601160045260246000fd5b634e487b7160e01b600052601260045260246000fd5b634e487b7160e01b600052604160045260246000fd5b6001600160e01b03198116811461141f57600080fdfea26469706673582212205d96db6012035f5893b162b9b9fa12e82fb6ba3f5ce0ebc75dbba95b7877bf3764736f6c63430008040033",
  "linkReferences": {},
  "deployedLinkReferences": {}
}